{
  "contractName": "ERC20",
  "abi": [
    {
      "inputs": [],
      "stateMutability": "nonpayable",
      "type": "constructor"
    },
    {
      "anonymous": false,
      "inputs": [
        {
          "indexed": true,
          "internalType": "address",
          "name": "owner",
          "type": "address"
        },
        {
          "indexed": true,
          "internalType": "address",
          "name": "spender",
          "type": "address"
        },
        {
          "indexed": false,
          "internalType": "uint256",
          "name": "value",
          "type": "uint256"
        }
      ],
      "name": "Approval",
      "type": "event"
    },
    {
      "anonymous": false,
      "inputs": [
        {
          "indexed": true,
          "internalType": "address",
          "name": "previousOwner",
          "type": "address"
        },
        {
          "indexed": true,
          "internalType": "address",
          "name": "newOwner",
          "type": "address"
        }
      ],
      "name": "OwnershipTransferred",
      "type": "event"
    },
    {
      "anonymous": false,
      "inputs": [
        {
          "indexed": true,
          "internalType": "address",
          "name": "from",
          "type": "address"
        },
        {
          "indexed": true,
          "internalType": "address",
          "name": "to",
          "type": "address"
        },
        {
          "indexed": false,
          "internalType": "uint256",
          "name": "value",
          "type": "uint256"
        }
      ],
      "name": "Transfer",
      "type": "event"
    },
    {
      "anonymous": false,
      "inputs": [
        {
          "indexed": false,
          "internalType": "uint256",
          "name": "",
          "type": "uint256"
        }
      ],
      "name": "_Balances",
      "type": "event"
    },
    {
      "inputs": [],
      "name": "owner",
      "outputs": [
        {
          "internalType": "address",
          "name": "",
          "type": "address"
        }
      ],
      "stateMutability": "view",
      "type": "function"
    },
    {
      "inputs": [],
      "name": "renounceOwnership",
      "outputs": [],
      "stateMutability": "nonpayable",
      "type": "function"
    },
    {
      "inputs": [
        {
          "internalType": "address",
          "name": "newOwner",
          "type": "address"
        }
      ],
      "name": "transferOwnership",
      "outputs": [],
      "stateMutability": "nonpayable",
      "type": "function"
    },
    {
      "inputs": [],
      "name": "totalSupply",
      "outputs": [
        {
          "internalType": "uint256",
          "name": "",
          "type": "uint256"
        }
      ],
      "stateMutability": "view",
      "type": "function"
    },
    {
      "inputs": [],
      "name": "getTokenDetails",
      "outputs": [
        {
          "internalType": "string",
          "name": "Name",
          "type": "string"
        },
        {
          "internalType": "string",
          "name": "Symbol",
          "type": "string"
        },
        {
          "internalType": "uint256",
          "name": "Decimals",
          "type": "uint256"
        },
        {
          "internalType": "address",
          "name": "Owner",
          "type": "address"
        },
        {
          "internalType": "address",
          "name": "ContractAddress",
          "type": "address"
        }
      ],
      "stateMutability": "view",
      "type": "function"
    },
    {
      "inputs": [
        {
          "internalType": "address",
          "name": "account",
          "type": "address"
        }
      ],
      "name": "balanceOf",
      "outputs": [
        {
          "internalType": "uint256",
          "name": "",
          "type": "uint256"
        }
      ],
      "stateMutability": "view",
      "type": "function"
    },
    {
      "inputs": [],
      "name": "contractBalance",
      "outputs": [
        {
          "internalType": "uint256",
          "name": "",
          "type": "uint256"
        }
      ],
      "stateMutability": "view",
      "type": "function"
    },
    {
      "inputs": [
        {
          "internalType": "address",
          "name": "recipient",
          "type": "address"
        },
        {
          "internalType": "uint256",
          "name": "amount",
          "type": "uint256"
        }
      ],
      "name": "transfer",
      "outputs": [
        {
          "internalType": "bool",
          "name": "",
          "type": "bool"
        }
      ],
      "stateMutability": "nonpayable",
      "type": "function"
    },
    {
      "inputs": [
        {
          "internalType": "address",
          "name": "spender",
          "type": "address"
        },
        {
          "internalType": "uint256",
          "name": "amount",
          "type": "uint256"
        }
      ],
      "name": "approve",
      "outputs": [
        {
          "internalType": "bool",
          "name": "",
          "type": "bool"
        }
      ],
      "stateMutability": "nonpayable",
      "type": "function"
    },
    {
      "inputs": [
        {
          "internalType": "address",
          "name": "tokenOwner",
          "type": "address"
        },
        {
          "internalType": "address",
          "name": "spender",
          "type": "address"
        }
      ],
      "name": "allowance",
      "outputs": [
        {
          "internalType": "uint256",
          "name": "",
          "type": "uint256"
        }
      ],
      "stateMutability": "view",
      "type": "function"
    },
    {
      "inputs": [
        {
          "internalType": "address",
          "name": "tokenOwner",
          "type": "address"
        },
        {
          "internalType": "address",
          "name": "recipient",
          "type": "address"
        },
        {
          "internalType": "uint256",
          "name": "amount",
          "type": "uint256"
        }
      ],
      "name": "transferFrom",
      "outputs": [
        {
          "internalType": "bool",
          "name": "",
          "type": "bool"
        }
      ],
      "stateMutability": "nonpayable",
      "type": "function"
    },
    {
      "inputs": [],
      "name": "killingContract",
      "outputs": [
        {
          "internalType": "uint256",
          "name": "",
          "type": "uint256"
        }
      ],
      "stateMutability": "payable",
      "type": "function"
    }
  ],
  "bytecode": "0x60806040523480156200001157600080fd5b5062000023336200019f60201b60201c565b6040518060400160405280600981526020017f54686520546f6b656e000000000000000000000000000000000000000000000081525060049080519060200190620000709291906200028c565b506040518060400160405280600381526020017f54544e000000000000000000000000000000000000000000000000000000000081525060059080519060200190620000be9291906200028c565b50601260068190555030600860006101000a81548173ffffffffffffffffffffffffffffffffffffffff021916908373ffffffffffffffffffffffffffffffffffffffff1602179055504260786200011791906200033c565b600781905550600654600a6200012e9190620003f4565b62030d406200013e919062000531565b600381905550600354600160006200015b6200026360201b60201c565b73ffffffffffffffffffffffffffffffffffffffff1673ffffffffffffffffffffffffffffffffffffffff168152602001908152602001600020819055506200063d565b60008060009054906101000a900473ffffffffffffffffffffffffffffffffffffffff169050816000806101000a81548173ffffffffffffffffffffffffffffffffffffffff021916908373ffffffffffffffffffffffffffffffffffffffff1602179055508173ffffffffffffffffffffffffffffffffffffffff168173ffffffffffffffffffffffffffffffffffffffff167f8be0079c531659141344cd1fd0a4f28419497f9722a3daafe3b4186f6b6457e060405160405180910390a35050565b60008060009054906101000a900473ffffffffffffffffffffffffffffffffffffffff16905090565b8280546200029a906200059c565b90600052602060002090601f016020900481019282620002be57600085556200030a565b82601f10620002d957805160ff19168380011785556200030a565b828001600101855582156200030a579182015b8281111562000309578251825591602001919060010190620002ec565b5b5090506200031991906200031d565b5090565b5b80821115620003385760008160009055506001016200031e565b5090565b6000620003498262000592565b9150620003568362000592565b9250827fffffffffffffffffffffffffffffffffffffffffffffffffffffffffffffffff038211156200038e576200038d620005d2565b5b828201905092915050565b6000808291508390505b6001851115620003eb57808604811115620003c357620003c2620005d2565b5b6001851615620003d35780820291505b8081029050620003e38562000630565b9450620003a3565b94509492505050565b6000620004018262000592565b91506200040e8362000592565b92506200043d7fffffffffffffffffffffffffffffffffffffffffffffffffffffffffffffffff848462000445565b905092915050565b6000826200045757600190506200052a565b816200046757600090506200052a565b81600181146200048057600281146200048b57620004c1565b60019150506200052a565b60ff841115620004a0576200049f620005d2565b5b8360020a915084821115620004ba57620004b9620005d2565b5b506200052a565b5060208310610133831016604e8410600b8410161715620004fb5782820a905083811115620004f557620004f4620005d2565b5b6200052a565b6200050a848484600162000399565b92509050818404811115620005245762000523620005d2565b5b81810290505b9392505050565b60006200053e8262000592565b91506200054b8362000592565b9250817fffffffffffffffffffffffffffffffffffffffffffffffffffffffffffffffff0483118215151615620005875762000586620005d2565b5b828202905092915050565b6000819050919050565b60006002820490506001821680620005b557607f821691505b60208210811415620005cc57620005cb62000601565b5b50919050565b7f4e487b7100000000000000000000000000000000000000000000000000000000600052601160045260246000fd5b7f4e487b7100000000000000000000000000000000000000000000000000000000600052602260045260246000fd5b60008160011c9050919050565b611afc806200064d6000396000f3fe6080604052600436106100a75760003560e01c80638b7afe2e116100645780638b7afe2e146101c35780638da5cb5b146101ee578063a9059cbb14610219578063dd62ed3e14610256578063f2fde38b14610293578063ff332ab7146102bc576100a7565b8063095ea7b3146100ac57806318160ddd146100e957806320bbdd1e1461011457806323b872dd1461013257806370a082311461016f578063715018a6146101ac575b600080fd5b3480156100b857600080fd5b506100d360048036038101906100ce9190611290565b6102eb565b6040516100e091906116bf565b60405180910390f35b3480156100f557600080fd5b506100fe6105b1565b60405161010b91906118bb565b60405180910390f35b61011c6105bb565b60405161012991906118bb565b60405180910390f35b34801561013e57600080fd5b5061015960048036038101906101549190611241565b610774565b60405161016691906116bf565b60405180910390f35b34801561017b57600080fd5b50610196600480360381019061019191906111dc565b610a03565b6040516101a391906118bb565b60405180910390f35b3480156101b857600080fd5b506101c1610a4c565b005b3480156101cf57600080fd5b506101d8610acd565b6040516101e591906118bb565b60405180910390f35b3480156101fa57600080fd5b50610203610b0e565b60405161021091906116a4565b60405180910390f35b34801561022557600080fd5b50610240600480360381019061023b9190611290565b610b37565b60405161024d91906116bf565b60405180910390f35b34801561026257600080fd5b5061027d60048036038101906102789190611205565b610b4f565b60405161028a91906118bb565b60405180910390f35b34801561029f57600080fd5b506102ba60048036038101906102b591906111dc565b610bd6565b005b3480156102c857600080fd5b506102d1610cc7565b6040516102e29594939291906116da565b60405180910390f35b6000803390508073ffffffffffffffffffffffffffffffffffffffff163373ffffffffffffffffffffffffffffffffffffffff161461035f576040517f08c379a00000000000000000000000000000000000000000000000000000000081526004016103569061183b565b60405180910390fd5b82600160008373ffffffffffffffffffffffffffffffffffffffff1673ffffffffffffffffffffffffffffffffffffffff16815260200190815260200160002054116103e0576040517f08c379a00000000000000000000000000000000000000000000000000000000081526004016103d7906117bb565b60405180910390fd5b600073ffffffffffffffffffffffffffffffffffffffff168173ffffffffffffffffffffffffffffffffffffffff161415610450576040517f08c379a00000000000000000000000000000000000000000000000000000000081526004016104479061181b565b60405180910390fd5b600073ffffffffffffffffffffffffffffffffffffffff168473ffffffffffffffffffffffffffffffffffffffff1614156104c0576040517f08c379a00000000000000000000000000000000000000000000000000000000081526004016104b79061187b565b60405180910390fd5b82600260008373ffffffffffffffffffffffffffffffffffffffff1673ffffffffffffffffffffffffffffffffffffffff16815260200190815260200160002060008673ffffffffffffffffffffffffffffffffffffffff1673ffffffffffffffffffffffffffffffffffffffff168152602001908152602001600020819055508373ffffffffffffffffffffffffffffffffffffffff168173ffffffffffffffffffffffffffffffffffffffff167f8c5be1e5ebec7d5bd14f71427d1e84f3dd0314c0f7b2291e5b200ac8c7c3b9258560405161059e91906118bb565b60405180910390a3600191505092915050565b6000600354905090565b60003373ffffffffffffffffffffffffffffffffffffffff166105dc610b0e565b73ffffffffffffffffffffffffffffffffffffffff1614610632576040517f08c379a0000000000000000000000000000000000000000000000000000000008152600401610629906117db565b60405180910390fd5b600060016000600860009054906101000a900473ffffffffffffffffffffffffffffffffffffffff1673ffffffffffffffffffffffffffffffffffffffff1673ffffffffffffffffffffffffffffffffffffffff1681526020019081526020016000205490506000811115610754576106d5600860009054906101000a900473ffffffffffffffffffffffffffffffffffffffff166106cf610b0e565b83610e2a565b507f0989e97db8b1f78ab91f1a02cb8a47286c74c3a10c9730e2c8bf30ab2f27d57e60016000610703610b0e565b73ffffffffffffffffffffffffffffffffffffffff1673ffffffffffffffffffffffffffffffffffffffff1681526020019081526020016000205460405161074b91906118bb565b60405180910390a15b61075c610b0e565b73ffffffffffffffffffffffffffffffffffffffff16ff5b600060075442116107ba576040517f08c379a00000000000000000000000000000000000000000000000000000000081526004016107b19061173b565b60405180910390fd5b60003390506000600260008773ffffffffffffffffffffffffffffffffffffffff1673ffffffffffffffffffffffffffffffffffffffff16815260200190815260200160002060008373ffffffffffffffffffffffffffffffffffffffff1673ffffffffffffffffffffffffffffffffffffffff168152602001908152602001600020549050838111610882576040517f08c379a00000000000000000000000000000000000000000000000000000000081526004016108799061179b565b60405180910390fd5b600073ffffffffffffffffffffffffffffffffffffffff168573ffffffffffffffffffffffffffffffffffffffff1614156108f2576040517f08c379a00000000000000000000000000000000000000000000000000000000081526004016108e99061177b565b60405180910390fd5b83600260008873ffffffffffffffffffffffffffffffffffffffff1673ffffffffffffffffffffffffffffffffffffffff16815260200190815260200160002060008473ffffffffffffffffffffffffffffffffffffffff1673ffffffffffffffffffffffffffffffffffffffff168152602001908152602001600020600082825461097e9190611948565b92505081905550610990868686610e2a565b508473ffffffffffffffffffffffffffffffffffffffff168673ffffffffffffffffffffffffffffffffffffffff167fddf252ad1be2c89b69c2b068fc378daa952ba7f163c4a11628f55a4df523b3ef866040516109ee91906118bb565b60405180910390a36001925050509392505050565b6000600160008373ffffffffffffffffffffffffffffffffffffffff1673ffffffffffffffffffffffffffffffffffffffff168152602001908152602001600020549050919050565b3373ffffffffffffffffffffffffffffffffffffffff16610a6b610b0e565b73ffffffffffffffffffffffffffffffffffffffff1614610ac1576040517f08c379a0000000000000000000000000000000000000000000000000000000008152600401610ab8906117db565b60405180910390fd5b610acb60006110ee565b565b6000600860009054906101000a900473ffffffffffffffffffffffffffffffffffffffff1673ffffffffffffffffffffffffffffffffffffffff1631905090565b60008060009054906101000a900473ffffffffffffffffffffffffffffffffffffffff16905090565b6000610b44338484610e2a565b506001905092915050565b6000600260008473ffffffffffffffffffffffffffffffffffffffff1673ffffffffffffffffffffffffffffffffffffffff16815260200190815260200160002060008373ffffffffffffffffffffffffffffffffffffffff1673ffffffffffffffffffffffffffffffffffffffff16815260200190815260200160002054905092915050565b3373ffffffffffffffffffffffffffffffffffffffff16610bf5610b0e565b73ffffffffffffffffffffffffffffffffffffffff1614610c4b576040517f08c379a0000000000000000000000000000000000000000000000000000000008152600401610c42906117db565b60405180910390fd5b600073ffffffffffffffffffffffffffffffffffffffff168173ffffffffffffffffffffffffffffffffffffffff161415610cbb576040517f08c379a0000000000000000000000000000000000000000000000000000000008152600401610cb29061175b565b60405180910390fd5b610cc4816110ee565b50565b606080600080600060046005600654610cde610b0e565b600860009054906101000a900473ffffffffffffffffffffffffffffffffffffffff16848054610d0d906119f7565b80601f0160208091040260200160405190810160405280929190818152602001828054610d39906119f7565b8015610d865780601f10610d5b57610100808354040283529160200191610d86565b820191906000526020600020905b815481529060010190602001808311610d6957829003601f168201915b50505050509450838054610d99906119f7565b80601f0160208091040260200160405190810160405280929190818152602001828054610dc5906119f7565b8015610e125780601f10610de757610100808354040283529160200191610e12565b820191906000526020600020905b815481529060010190602001808311610df557829003601f168201915b50505050509350945094509450945094509091929394565b60006007544211610e70576040517f08c379a0000000000000000000000000000000000000000000000000000000008152600401610e679061173b565b60405180910390fd5b600073ffffffffffffffffffffffffffffffffffffffff168473ffffffffffffffffffffffffffffffffffffffff161415610ee0576040517f08c379a0000000000000000000000000000000000000000000000000000000008152600401610ed79061185b565b60405180910390fd5b600073ffffffffffffffffffffffffffffffffffffffff168373ffffffffffffffffffffffffffffffffffffffff161415610f50576040517f08c379a0000000000000000000000000000000000000000000000000000000008152600401610f479061189b565b60405180910390fd5b81600160008673ffffffffffffffffffffffffffffffffffffffff1673ffffffffffffffffffffffffffffffffffffffff168152602001908152602001600020541015610fd2576040517f08c379a0000000000000000000000000000000000000000000000000000000008152600401610fc9906117fb565b60405180910390fd5b81600160008673ffffffffffffffffffffffffffffffffffffffff1673ffffffffffffffffffffffffffffffffffffffff16815260200190815260200160002060008282546110219190611948565b9250508190555081600160008573ffffffffffffffffffffffffffffffffffffffff1673ffffffffffffffffffffffffffffffffffffffff168152602001908152602001600020600082825461107791906118f2565b925050819055508273ffffffffffffffffffffffffffffffffffffffff168473ffffffffffffffffffffffffffffffffffffffff167fddf252ad1be2c89b69c2b068fc378daa952ba7f163c4a11628f55a4df523b3ef846040516110db91906118bb565b60405180910390a3600190509392505050565b60008060009054906101000a900473ffffffffffffffffffffffffffffffffffffffff169050816000806101000a81548173ffffffffffffffffffffffffffffffffffffffff021916908373ffffffffffffffffffffffffffffffffffffffff1602179055508173ffffffffffffffffffffffffffffffffffffffff168173ffffffffffffffffffffffffffffffffffffffff167f8be0079c531659141344cd1fd0a4f28419497f9722a3daafe3b4186f6b6457e060405160405180910390a35050565b6000813590506111c181611a98565b92915050565b6000813590506111d681611aaf565b92915050565b6000602082840312156111ee57600080fd5b60006111fc848285016111b2565b91505092915050565b6000806040838503121561121857600080fd5b6000611226858286016111b2565b9250506020611237858286016111b2565b9150509250929050565b60008060006060848603121561125657600080fd5b6000611264868287016111b2565b9350506020611275868287016111b2565b9250506040611286868287016111c7565b9150509250925092565b600080604083850312156112a357600080fd5b60006112b1858286016111b2565b92505060206112c2858286016111c7565b9150509250929050565b6112d58161197c565b82525050565b6112e48161198e565b82525050565b60006112f5826118d6565b6112ff81856118e1565b935061130f8185602086016119c4565b61131881611a87565b840191505092915050565b60006113306019836118e1565b91507f5761697420666f72207468652076657374696e672074696d65000000000000006000830152602082019050919050565b60006113706026836118e1565b91507f4f776e61626c653a206e6577206f776e657220697320746865207a65726f206160008301527f64647265737300000000000000000000000000000000000000000000000000006020830152604082019050919050565b60006113d6601e836118e1565b91507f526563697069656e74206973206e6f742076616c6964206164647265737300006000830152602082019050919050565b60006114166036836118e1565b91507f417574686f72697a6572206c696d6974206973206e6f7420656e6f756768202f60008301527f6f722f20696e73756666696369656e742066756e6473000000000000000000006020830152604082019050919050565b600061147c6028836118e1565b91507f496e73756666696369656e742066756e647320696e20746f6b656e4f776e657260008301527f206163636f756e740000000000000000000000000000000000000000000000006020830152604082019050919050565b60006114e26020836118e1565b91507f4f776e61626c653a2063616c6c6572206973206e6f7420746865206f776e65726000830152602082019050919050565b60006115226014836118e1565b91507f696e73756666696369656e742062616c616e63650000000000000000000000006000830152602082019050919050565b6000611562601f836118e1565b91507f746f6b656e4f776e6572206973206e6f742076616c69642061646472657373006000830152602082019050919050565b60006115a26018836118e1565b91507f43616c6c6572206973206e6f7420746f6b656e4f776e657200000000000000006000830152602082019050919050565b60006115e2601b836118e1565b91507f73656e646572206973206e6f742076616c6964206164647265737300000000006000830152602082019050919050565b6000611622601c836118e1565b91507f7370656e646572206973206e6f742076616c69642061646472657373000000006000830152602082019050919050565b6000611662601e836118e1565b91507f726563697069656e74206973206e6f742076616c6964206164647265737300006000830152602082019050919050565b61169e816119ba565b82525050565b60006020820190506116b960008301846112cc565b92915050565b60006020820190506116d460008301846112db565b92915050565b600060a08201905081810360008301526116f481886112ea565b9050818103602083015261170881876112ea565b90506117176040830186611695565b61172460608301856112cc565b61173160808301846112cc565b9695505050505050565b6000602082019050818103600083015261175481611323565b9050919050565b6000602082019050818103600083015261177481611363565b9050919050565b60006020820190508181036000830152611794816113c9565b9050919050565b600060208201905081810360008301526117b481611409565b9050919050565b600060208201905081810360008301526117d48161146f565b9050919050565b600060208201905081810360008301526117f4816114d5565b9050919050565b6000602082019050818103600083015261181481611515565b9050919050565b6000602082019050818103600083015261183481611555565b9050919050565b6000602082019050818103600083015261185481611595565b9050919050565b60006020820190508181036000830152611874816115d5565b9050919050565b6000602082019050818103600083015261189481611615565b9050919050565b600060208201905081810360008301526118b481611655565b9050919050565b60006020820190506118d06000830184611695565b92915050565b600081519050919050565b600082825260208201905092915050565b60006118fd826119ba565b9150611908836119ba565b9250827fffffffffffffffffffffffffffffffffffffffffffffffffffffffffffffffff0382111561193d5761193c611a29565b5b828201905092915050565b6000611953826119ba565b915061195e836119ba565b92508282101561197157611970611a29565b5b828203905092915050565b60006119878261199a565b9050919050565b60008115159050919050565b600073ffffffffffffffffffffffffffffffffffffffff82169050919050565b6000819050919050565b60005b838110156119e25780820151818401526020810190506119c7565b838111156119f1576000848401525b50505050565b60006002820490506001821680611a0f57607f821691505b60208210811415611a2357611a22611a58565b5b50919050565b7f4e487b7100000000000000000000000000000000000000000000000000000000600052601160045260246000fd5b7f4e487b7100000000000000000000000000000000000000000000000000000000600052602260045260246000fd5b6000601f19601f8301169050919050565b611aa18161197c565b8114611aac57600080fd5b50565b611ab8816119ba565b8114611ac357600080fd5b5056fea26469706673582212200446f63129ae332b0e19c64a47de34e7a628a07584bb3aa976bc20e356c3369564736f6c63430008000033",
  "immutableReferences": {},
  "source": "// SPDX-License-Identifier: MIT\n\npragma solidity ^0.8.0;\n\nimport \"./IERC20_wapda.sol\";\nimport \"./Ownable.sol\";\n\ncontract ERC20 is IERC20, Ownable{\n    \n    mapping (address => uint) private _balances;\n    mapping (address => mapping(address => uint )) private _allowances;\n   \n    uint internal _totalsupply;\n    string internal name;\n    string internal symbol;\n    uint internal decimals;\n    uint internal lockTime;\n    address internal contractAddress;\n    event _Balances(uint);\n    \n    constructor() {\n        name = \"The Token\";\n        symbol = \"TTN\";\n        decimals = 18;\n        contractAddress = address(this);\n        lockTime = 120 + block.timestamp; //2629743 = one month ----- for practice purpose 2 minutes are keeping lockTime\n        \n        _totalsupply = 200000 * 10**decimals;\n        _balances[owner()] = _totalsupply;\n    }\n    \n    modifier isTimeLock(){\n        require(block.timestamp > lockTime,\"Wait for the vesting time\");\n        _;\n    } \n    \n    function totalSupply()public view virtual override returns(uint){\n        return _totalsupply;\n    }\n    \n    function getTokenDetails()public view returns(\n        string memory Name, \n        string memory Symbol, \n        uint Decimals, \n        address Owner,\n        address ContractAddress)\n    {\n        return (name, symbol, decimals, owner(), contractAddress);\n    }\n    \n    function balanceOf(address account) public view virtual override returns(uint){\n        return _balances[account];\n    }\n    \n    function contractBalance() public view returns(uint){\n        return contractAddress.balance;\n    }\n    \n    function transfer(address recipient, uint amount)public virtual override returns(bool){\n        _transfer(msg.sender, recipient, amount);\n        return true;\n   \n    }\n    \n      function _transfer(address sender, address recipient, uint amount)internal virtual isTimeLock returns(bool){\n        require(sender != address(0), \"sender is not valid address\");\n        require(recipient != address(0), \"recipient is not valid address\");\n        require(_balances[sender] >= amount,\"insufficient balance\");\n        \n      _balances[sender] -= amount; \n      _balances[recipient] += amount;\n      \n        emit Transfer(sender, recipient, amount);\n        return true;\n    }\n    \n    function buyTokens(address recipient, uint amount)internal virtual returns(bool){\n        require(msg.sender != address(0), \"sender is not valid address\");\n        require(recipient != address(0), \"recipient is not valid address\");\n        \n       _balances[owner()] -= amount; \n       _balances[recipient] += amount;\n      \n        emit Transfer(owner(), recipient, amount);\n        return true;\n    }  \n    \n    function mint(address account, uint _mint)internal virtual isTimeLock returns(bool){\n        require(account != address(0) && _mint > 0,\"unauthorized call\");\n        _totalsupply += _mint*10**decimals;\n        _balances[account] += _mint*10**decimals;\n        return true;\n    }\n\n    function approve(address spender, uint amount)public virtual override returns(bool){\n        address tokenOwner = msg.sender;\n        \n        require(msg.sender == tokenOwner,\"Caller is not tokenOwner\");\n        require(_balances[tokenOwner] > amount,\"Insufficient funds in tokenOwner account\");\n        require(tokenOwner != address(0), \"tokenOwner is not valid address\");\n        require(spender != address(0), \"spender is not valid address\");\n        \n        _allowances[tokenOwner][spender] = amount;\n        emit Approval(tokenOwner,spender,amount);\n        return true;\n    }\n    \n    function allowance(address tokenOwner, address spender)public virtual override view returns(uint){\n        return _allowances[tokenOwner][spender];\n    }\n    \n    function transferFrom(address tokenOwner, address recipient, uint amount)public virtual override isTimeLock returns(bool){\n        address spender = msg.sender;\n        uint value = _allowances[tokenOwner][spender];\n        require(value > amount,\"Authorizer limit is not enough /or/ insufficient funds\");\n        require(recipient != address(0), \"Recipient is not valid address\");\n        \n        _allowances[tokenOwner][spender] -= amount;\n        _transfer(tokenOwner,recipient,amount);\n        \n        emit Transfer(tokenOwner, recipient, amount);\n        return true;\n    }\n    \n    function killingContract()external payable onlyOwner() returns(uint){\n        uint remainingToken = _balances[contractAddress];\n        if (remainingToken > 0){\n            _transfer(contractAddress,owner(),remainingToken);\n            emit _Balances (_balances[owner()]);\n        }\n\n        selfdestruct(payable(owner()));\n        emit Transfer(contractAddress,owner(),remainingToken);\n        return _balances[owner()];\n    }\n    \n}",
  "sourcePath": "C:\\Users\\ASIM_PIAIC_BCC\\Desktop\\Assignment 3C - Q3\\contracts\\ERC20TheToken.sol",
  "compiler": {
    "name": "solc",
    "version": "0.8.0+commit.c7dfd78e.Emscripten.clang"
  },
  "schemaVersion": "3.4.3",
  "updatedAt": "2021-08-26T18:33:45.424Z",
  "devdoc": {
    "kind": "dev",
    "methods": {},
    "version": 1
  },
  "userdoc": {
    "kind": "user",
    "methods": {},
    "version": 1
  }
}