{
  "contractName": "ERC20",
  "abi": [
    {
      "inputs": [],
      "stateMutability": "nonpayable",
      "type": "constructor"
    },
    {
      "anonymous": false,
      "inputs": [
        {
          "indexed": true,
          "internalType": "address",
          "name": "owner",
          "type": "address"
        },
        {
          "indexed": true,
          "internalType": "address",
          "name": "spender",
          "type": "address"
        },
        {
          "indexed": false,
          "internalType": "uint256",
          "name": "value",
          "type": "uint256"
        }
      ],
      "name": "Approval",
      "type": "event"
    },
    {
      "anonymous": false,
      "inputs": [
        {
          "indexed": true,
          "internalType": "address",
          "name": "previousOwner",
          "type": "address"
        },
        {
          "indexed": true,
          "internalType": "address",
          "name": "newOwner",
          "type": "address"
        }
      ],
      "name": "OwnershipTransferred",
      "type": "event"
    },
    {
      "anonymous": false,
      "inputs": [
        {
          "indexed": true,
          "internalType": "address",
          "name": "from",
          "type": "address"
        },
        {
          "indexed": true,
          "internalType": "address",
          "name": "to",
          "type": "address"
        },
        {
          "indexed": false,
          "internalType": "uint256",
          "name": "value",
          "type": "uint256"
        }
      ],
      "name": "Transfer",
      "type": "event"
    },
    {
      "anonymous": false,
      "inputs": [
        {
          "indexed": false,
          "internalType": "uint256",
          "name": "",
          "type": "uint256"
        }
      ],
      "name": "_Balances",
      "type": "event"
    },
    {
      "inputs": [],
      "name": "_totalsupply",
      "outputs": [
        {
          "internalType": "uint256",
          "name": "",
          "type": "uint256"
        }
      ],
      "stateMutability": "view",
      "type": "function"
    },
    {
      "inputs": [],
      "name": "decimals",
      "outputs": [
        {
          "internalType": "uint256",
          "name": "",
          "type": "uint256"
        }
      ],
      "stateMutability": "view",
      "type": "function"
    },
    {
      "inputs": [],
      "name": "name",
      "outputs": [
        {
          "internalType": "string",
          "name": "",
          "type": "string"
        }
      ],
      "stateMutability": "view",
      "type": "function"
    },
    {
      "inputs": [],
      "name": "owner",
      "outputs": [
        {
          "internalType": "address",
          "name": "",
          "type": "address"
        }
      ],
      "stateMutability": "view",
      "type": "function"
    },
    {
      "inputs": [],
      "name": "renounceOwnership",
      "outputs": [],
      "stateMutability": "nonpayable",
      "type": "function"
    },
    {
      "inputs": [],
      "name": "symbol",
      "outputs": [
        {
          "internalType": "string",
          "name": "",
          "type": "string"
        }
      ],
      "stateMutability": "view",
      "type": "function"
    },
    {
      "inputs": [
        {
          "internalType": "address",
          "name": "newOwner",
          "type": "address"
        }
      ],
      "name": "transferOwnership",
      "outputs": [],
      "stateMutability": "nonpayable",
      "type": "function"
    },
    {
      "inputs": [],
      "name": "totalSupply",
      "outputs": [
        {
          "internalType": "uint256",
          "name": "",
          "type": "uint256"
        }
      ],
      "stateMutability": "view",
      "type": "function"
    },
    {
      "inputs": [],
      "name": "getTokenDetails",
      "outputs": [
        {
          "internalType": "string",
          "name": "Name",
          "type": "string"
        },
        {
          "internalType": "string",
          "name": "Symbol",
          "type": "string"
        },
        {
          "internalType": "uint256",
          "name": "Decimals",
          "type": "uint256"
        },
        {
          "internalType": "address",
          "name": "Owner",
          "type": "address"
        },
        {
          "internalType": "address",
          "name": "ContractAddress",
          "type": "address"
        }
      ],
      "stateMutability": "view",
      "type": "function"
    },
    {
      "inputs": [
        {
          "internalType": "address",
          "name": "account",
          "type": "address"
        }
      ],
      "name": "balanceOf",
      "outputs": [
        {
          "internalType": "uint256",
          "name": "",
          "type": "uint256"
        }
      ],
      "stateMutability": "view",
      "type": "function"
    },
    {
      "inputs": [],
      "name": "contractBalance",
      "outputs": [
        {
          "internalType": "uint256",
          "name": "",
          "type": "uint256"
        }
      ],
      "stateMutability": "view",
      "type": "function"
    },
    {
      "inputs": [
        {
          "internalType": "address",
          "name": "recipient",
          "type": "address"
        },
        {
          "internalType": "uint256",
          "name": "amount",
          "type": "uint256"
        }
      ],
      "name": "transfer",
      "outputs": [
        {
          "internalType": "bool",
          "name": "",
          "type": "bool"
        }
      ],
      "stateMutability": "nonpayable",
      "type": "function"
    },
    {
      "inputs": [
        {
          "internalType": "address",
          "name": "spender",
          "type": "address"
        },
        {
          "internalType": "uint256",
          "name": "amount",
          "type": "uint256"
        }
      ],
      "name": "approve",
      "outputs": [
        {
          "internalType": "bool",
          "name": "",
          "type": "bool"
        }
      ],
      "stateMutability": "nonpayable",
      "type": "function"
    },
    {
      "inputs": [
        {
          "internalType": "address",
          "name": "tokenOwner",
          "type": "address"
        },
        {
          "internalType": "address",
          "name": "spender",
          "type": "address"
        }
      ],
      "name": "allowance",
      "outputs": [
        {
          "internalType": "uint256",
          "name": "",
          "type": "uint256"
        }
      ],
      "stateMutability": "view",
      "type": "function"
    },
    {
      "inputs": [
        {
          "internalType": "address",
          "name": "tokenOwner",
          "type": "address"
        },
        {
          "internalType": "address",
          "name": "recipient",
          "type": "address"
        },
        {
          "internalType": "uint256",
          "name": "amount",
          "type": "uint256"
        }
      ],
      "name": "transferFrom",
      "outputs": [
        {
          "internalType": "bool",
          "name": "",
          "type": "bool"
        }
      ],
      "stateMutability": "nonpayable",
      "type": "function"
    },
    {
      "inputs": [],
      "name": "killingContract",
      "outputs": [
        {
          "internalType": "uint256",
          "name": "",
          "type": "uint256"
        }
      ],
      "stateMutability": "payable",
      "type": "function"
    }
  ],
  "bytecode": "0x60806040523480156200001157600080fd5b5062000023336200019f60201b60201c565b6040518060400160405280600981526020017f54686520546f6b656e000000000000000000000000000000000000000000000081525060049080519060200190620000709291906200028c565b506040518060400160405280600381526020017f54544e000000000000000000000000000000000000000000000000000000000081525060059080519060200190620000be9291906200028c565b50601260068190555030600860006101000a81548173ffffffffffffffffffffffffffffffffffffffff021916908373ffffffffffffffffffffffffffffffffffffffff1602179055504260786200011791906200033c565b600781905550600654600a6200012e9190620003f4565b62030d406200013e919062000531565b600381905550600354600160006200015b6200026360201b60201c565b73ffffffffffffffffffffffffffffffffffffffff1673ffffffffffffffffffffffffffffffffffffffff168152602001908152602001600020819055506200063d565b60008060009054906101000a900473ffffffffffffffffffffffffffffffffffffffff169050816000806101000a81548173ffffffffffffffffffffffffffffffffffffffff021916908373ffffffffffffffffffffffffffffffffffffffff1602179055508173ffffffffffffffffffffffffffffffffffffffff168173ffffffffffffffffffffffffffffffffffffffff167f8be0079c531659141344cd1fd0a4f28419497f9722a3daafe3b4186f6b6457e060405160405180910390a35050565b60008060009054906101000a900473ffffffffffffffffffffffffffffffffffffffff16905090565b8280546200029a906200059c565b90600052602060002090601f016020900481019282620002be57600085556200030a565b82601f10620002d957805160ff19168380011785556200030a565b828001600101855582156200030a579182015b8281111562000309578251825591602001919060010190620002ec565b5b5090506200031991906200031d565b5090565b5b80821115620003385760008160009055506001016200031e565b5090565b6000620003498262000592565b9150620003568362000592565b9250827fffffffffffffffffffffffffffffffffffffffffffffffffffffffffffffffff038211156200038e576200038d620005d2565b5b828201905092915050565b6000808291508390505b6001851115620003eb57808604811115620003c357620003c2620005d2565b5b6001851615620003d35780820291505b8081029050620003e38562000630565b9450620003a3565b94509492505050565b6000620004018262000592565b91506200040e8362000592565b92506200043d7fffffffffffffffffffffffffffffffffffffffffffffffffffffffffffffffff848462000445565b905092915050565b6000826200045757600190506200052a565b816200046757600090506200052a565b81600181146200048057600281146200048b57620004c1565b60019150506200052a565b60ff841115620004a0576200049f620005d2565b5b8360020a915084821115620004ba57620004b9620005d2565b5b506200052a565b5060208310610133831016604e8410600b8410161715620004fb5782820a905083811115620004f557620004f4620005d2565b5b6200052a565b6200050a848484600162000399565b92509050818404811115620005245762000523620005d2565b5b81810290505b9392505050565b60006200053e8262000592565b91506200054b8362000592565b9250817fffffffffffffffffffffffffffffffffffffffffffffffffffffffffffffffff0483118215151615620005875762000586620005d2565b5b828202905092915050565b6000819050919050565b60006002820490506001821680620005b557607f821691505b60208210811415620005cc57620005cb62000601565b5b50919050565b7f4e487b7100000000000000000000000000000000000000000000000000000000600052601160045260246000fd5b7f4e487b7100000000000000000000000000000000000000000000000000000000600052602260045260246000fd5b60008160011c9050919050565b611d3e806200064d6000396000f3fe6080604052600436106100f35760003560e01c80638b7afe2e1161008a578063a9059cbb11610059578063a9059cbb14610311578063dd62ed3e1461034e578063f2fde38b1461038b578063ff332ab7146103b4576100f3565b80638b7afe2e146102655780638da5cb5b1461029057806395d89b41146102bb578063a393dc44146102e6576100f3565b806323b872dd116100c657806323b872dd146101a9578063313ce567146101e657806370a0823114610211578063715018a61461024e576100f3565b806306fdde03146100f8578063095ea7b31461012357806318160ddd1461016057806320bbdd1e1461018b575b600080fd5b34801561010457600080fd5b5061010d6103e3565b60405161011a91906118fa565b60405180910390f35b34801561012f57600080fd5b5061014a600480360381019061014591906114b0565b610471565b60405161015791906118df565b60405180910390f35b34801561016c57600080fd5b50610175610737565b6040516101829190611afd565b60405180910390f35b610193610741565b6040516101a09190611afd565b60405180910390f35b3480156101b557600080fd5b506101d060048036038101906101cb9190611461565b6108fa565b6040516101dd91906118df565b60405180910390f35b3480156101f257600080fd5b506101fb610b89565b6040516102089190611afd565b60405180910390f35b34801561021d57600080fd5b50610238600480360381019061023391906113fc565b610b8f565b6040516102459190611afd565b60405180910390f35b34801561025a57600080fd5b50610263610bd8565b005b34801561027157600080fd5b5061027a610c59565b6040516102879190611afd565b60405180910390f35b34801561029c57600080fd5b506102a5610c9a565b6040516102b291906118c4565b60405180910390f35b3480156102c757600080fd5b506102d0610cc3565b6040516102dd91906118fa565b60405180910390f35b3480156102f257600080fd5b506102fb610d51565b6040516103089190611afd565b60405180910390f35b34801561031d57600080fd5b50610338600480360381019061033391906114b0565b610d57565b60405161034591906118df565b60405180910390f35b34801561035a57600080fd5b5061037560048036038101906103709190611425565b610d6f565b6040516103829190611afd565b60405180910390f35b34801561039757600080fd5b506103b260048036038101906103ad91906113fc565b610df6565b005b3480156103c057600080fd5b506103c9610ee7565b6040516103da95949392919061191c565b60405180910390f35b600480546103f090611c39565b80601f016020809104026020016040519081016040528092919081815260200182805461041c90611c39565b80156104695780601f1061043e57610100808354040283529160200191610469565b820191906000526020600020905b81548152906001019060200180831161044c57829003601f168201915b505050505081565b6000803390508073ffffffffffffffffffffffffffffffffffffffff163373ffffffffffffffffffffffffffffffffffffffff16146104e5576040517f08c379a00000000000000000000000000000000000000000000000000000000081526004016104dc90611a7d565b60405180910390fd5b82600160008373ffffffffffffffffffffffffffffffffffffffff1673ffffffffffffffffffffffffffffffffffffffff1681526020019081526020016000205411610566576040517f08c379a000000000000000000000000000000000000000000000000000000000815260040161055d906119fd565b60405180910390fd5b600073ffffffffffffffffffffffffffffffffffffffff168173ffffffffffffffffffffffffffffffffffffffff1614156105d6576040517f08c379a00000000000000000000000000000000000000000000000000000000081526004016105cd90611a5d565b60405180910390fd5b600073ffffffffffffffffffffffffffffffffffffffff168473ffffffffffffffffffffffffffffffffffffffff161415610646576040517f08c379a000000000000000000000000000000000000000000000000000000000815260040161063d90611abd565b60405180910390fd5b82600260008373ffffffffffffffffffffffffffffffffffffffff1673ffffffffffffffffffffffffffffffffffffffff16815260200190815260200160002060008673ffffffffffffffffffffffffffffffffffffffff1673ffffffffffffffffffffffffffffffffffffffff168152602001908152602001600020819055508373ffffffffffffffffffffffffffffffffffffffff168173ffffffffffffffffffffffffffffffffffffffff167f8c5be1e5ebec7d5bd14f71427d1e84f3dd0314c0f7b2291e5b200ac8c7c3b925856040516107249190611afd565b60405180910390a3600191505092915050565b6000600354905090565b60003373ffffffffffffffffffffffffffffffffffffffff16610762610c9a565b73ffffffffffffffffffffffffffffffffffffffff16146107b8576040517f08c379a00000000000000000000000000000000000000000000000000000000081526004016107af90611a1d565b60405180910390fd5b600060016000600860009054906101000a900473ffffffffffffffffffffffffffffffffffffffff1673ffffffffffffffffffffffffffffffffffffffff1673ffffffffffffffffffffffffffffffffffffffff16815260200190815260200160002054905060008111156108da5761085b600860009054906101000a900473ffffffffffffffffffffffffffffffffffffffff16610855610c9a565b8361104a565b507f0989e97db8b1f78ab91f1a02cb8a47286c74c3a10c9730e2c8bf30ab2f27d57e60016000610889610c9a565b73ffffffffffffffffffffffffffffffffffffffff1673ffffffffffffffffffffffffffffffffffffffff168152602001908152602001600020546040516108d19190611afd565b60405180910390a15b6108e2610c9a565b73ffffffffffffffffffffffffffffffffffffffff16ff5b60006007544211610940576040517f08c379a00000000000000000000000000000000000000000000000000000000081526004016109379061197d565b60405180910390fd5b60003390506000600260008773ffffffffffffffffffffffffffffffffffffffff1673ffffffffffffffffffffffffffffffffffffffff16815260200190815260200160002060008373ffffffffffffffffffffffffffffffffffffffff1673ffffffffffffffffffffffffffffffffffffffff168152602001908152602001600020549050838111610a08576040517f08c379a00000000000000000000000000000000000000000000000000000000081526004016109ff906119dd565b60405180910390fd5b600073ffffffffffffffffffffffffffffffffffffffff168573ffffffffffffffffffffffffffffffffffffffff161415610a78576040517f08c379a0000000000000000000000000000000000000000000000000000000008152600401610a6f906119bd565b60405180910390fd5b83600260008873ffffffffffffffffffffffffffffffffffffffff1673ffffffffffffffffffffffffffffffffffffffff16815260200190815260200160002060008473ffffffffffffffffffffffffffffffffffffffff1673ffffffffffffffffffffffffffffffffffffffff1681526020019081526020016000206000828254610b049190611b8a565b92505081905550610b1686868661104a565b508473ffffffffffffffffffffffffffffffffffffffff168673ffffffffffffffffffffffffffffffffffffffff167fddf252ad1be2c89b69c2b068fc378daa952ba7f163c4a11628f55a4df523b3ef86604051610b749190611afd565b60405180910390a36001925050509392505050565b60065481565b6000600160008373ffffffffffffffffffffffffffffffffffffffff1673ffffffffffffffffffffffffffffffffffffffff168152602001908152602001600020549050919050565b3373ffffffffffffffffffffffffffffffffffffffff16610bf7610c9a565b73ffffffffffffffffffffffffffffffffffffffff1614610c4d576040517f08c379a0000000000000000000000000000000000000000000000000000000008152600401610c4490611a1d565b60405180910390fd5b610c57600061130e565b565b6000600860009054906101000a900473ffffffffffffffffffffffffffffffffffffffff1673ffffffffffffffffffffffffffffffffffffffff1631905090565b60008060009054906101000a900473ffffffffffffffffffffffffffffffffffffffff16905090565b60058054610cd090611c39565b80601f0160208091040260200160405190810160405280929190818152602001828054610cfc90611c39565b8015610d495780601f10610d1e57610100808354040283529160200191610d49565b820191906000526020600020905b815481529060010190602001808311610d2c57829003601f168201915b505050505081565b60035481565b6000610d6433848461104a565b506001905092915050565b6000600260008473ffffffffffffffffffffffffffffffffffffffff1673ffffffffffffffffffffffffffffffffffffffff16815260200190815260200160002060008373ffffffffffffffffffffffffffffffffffffffff1673ffffffffffffffffffffffffffffffffffffffff16815260200190815260200160002054905092915050565b3373ffffffffffffffffffffffffffffffffffffffff16610e15610c9a565b73ffffffffffffffffffffffffffffffffffffffff1614610e6b576040517f08c379a0000000000000000000000000000000000000000000000000000000008152600401610e6290611a1d565b60405180910390fd5b600073ffffffffffffffffffffffffffffffffffffffff168173ffffffffffffffffffffffffffffffffffffffff161415610edb576040517f08c379a0000000000000000000000000000000000000000000000000000000008152600401610ed29061199d565b60405180910390fd5b610ee48161130e565b50565b606080600080600060046005600654610efe610c9a565b600860009054906101000a900473ffffffffffffffffffffffffffffffffffffffff16848054610f2d90611c39565b80601f0160208091040260200160405190810160405280929190818152602001828054610f5990611c39565b8015610fa65780601f10610f7b57610100808354040283529160200191610fa6565b820191906000526020600020905b815481529060010190602001808311610f8957829003601f168201915b50505050509450838054610fb990611c39565b80601f0160208091040260200160405190810160405280929190818152602001828054610fe590611c39565b80156110325780601f1061100757610100808354040283529160200191611032565b820191906000526020600020905b81548152906001019060200180831161101557829003601f168201915b50505050509350945094509450945094509091929394565b60006007544211611090576040517f08c379a00000000000000000000000000000000000000000000000000000000081526004016110879061197d565b60405180910390fd5b600073ffffffffffffffffffffffffffffffffffffffff168473ffffffffffffffffffffffffffffffffffffffff161415611100576040517f08c379a00000000000000000000000000000000000000000000000000000000081526004016110f790611a9d565b60405180910390fd5b600073ffffffffffffffffffffffffffffffffffffffff168373ffffffffffffffffffffffffffffffffffffffff161415611170576040517f08c379a000000000000000000000000000000000000000000000000000000000815260040161116790611add565b60405180910390fd5b81600160008673ffffffffffffffffffffffffffffffffffffffff1673ffffffffffffffffffffffffffffffffffffffff1681526020019081526020016000205410156111f2576040517f08c379a00000000000000000000000000000000000000000000000000000000081526004016111e990611a3d565b60405180910390fd5b81600160008673ffffffffffffffffffffffffffffffffffffffff1673ffffffffffffffffffffffffffffffffffffffff16815260200190815260200160002060008282546112419190611b8a565b9250508190555081600160008573ffffffffffffffffffffffffffffffffffffffff1673ffffffffffffffffffffffffffffffffffffffff16815260200190815260200160002060008282546112979190611b34565b925050819055508273ffffffffffffffffffffffffffffffffffffffff168473ffffffffffffffffffffffffffffffffffffffff167fddf252ad1be2c89b69c2b068fc378daa952ba7f163c4a11628f55a4df523b3ef846040516112fb9190611afd565b60405180910390a3600190509392505050565b60008060009054906101000a900473ffffffffffffffffffffffffffffffffffffffff169050816000806101000a81548173ffffffffffffffffffffffffffffffffffffffff021916908373ffffffffffffffffffffffffffffffffffffffff1602179055508173ffffffffffffffffffffffffffffffffffffffff168173ffffffffffffffffffffffffffffffffffffffff167f8be0079c531659141344cd1fd0a4f28419497f9722a3daafe3b4186f6b6457e060405160405180910390a35050565b6000813590506113e181611cda565b92915050565b6000813590506113f681611cf1565b92915050565b60006020828403121561140e57600080fd5b600061141c848285016113d2565b91505092915050565b6000806040838503121561143857600080fd5b6000611446858286016113d2565b9250506020611457858286016113d2565b9150509250929050565b60008060006060848603121561147657600080fd5b6000611484868287016113d2565b9350506020611495868287016113d2565b92505060406114a6868287016113e7565b9150509250925092565b600080604083850312156114c357600080fd5b60006114d1858286016113d2565b92505060206114e2858286016113e7565b9150509250929050565b6114f581611bbe565b82525050565b61150481611bd0565b82525050565b600061151582611b18565b61151f8185611b23565b935061152f818560208601611c06565b61153881611cc9565b840191505092915050565b6000611550601983611b23565b91507f5761697420666f72207468652076657374696e672074696d65000000000000006000830152602082019050919050565b6000611590602683611b23565b91507f4f776e61626c653a206e6577206f776e657220697320746865207a65726f206160008301527f64647265737300000000000000000000000000000000000000000000000000006020830152604082019050919050565b60006115f6601e83611b23565b91507f526563697069656e74206973206e6f742076616c6964206164647265737300006000830152602082019050919050565b6000611636603683611b23565b91507f417574686f72697a6572206c696d6974206973206e6f7420656e6f756768202f60008301527f6f722f20696e73756666696369656e742066756e6473000000000000000000006020830152604082019050919050565b600061169c602883611b23565b91507f496e73756666696369656e742066756e647320696e20746f6b656e4f776e657260008301527f206163636f756e740000000000000000000000000000000000000000000000006020830152604082019050919050565b6000611702602083611b23565b91507f4f776e61626c653a2063616c6c6572206973206e6f7420746865206f776e65726000830152602082019050919050565b6000611742601483611b23565b91507f696e73756666696369656e742062616c616e63650000000000000000000000006000830152602082019050919050565b6000611782601f83611b23565b91507f746f6b656e4f776e6572206973206e6f742076616c69642061646472657373006000830152602082019050919050565b60006117c2601883611b23565b91507f43616c6c6572206973206e6f7420746f6b656e4f776e657200000000000000006000830152602082019050919050565b6000611802601b83611b23565b91507f73656e646572206973206e6f742076616c6964206164647265737300000000006000830152602082019050919050565b6000611842601c83611b23565b91507f7370656e646572206973206e6f742076616c69642061646472657373000000006000830152602082019050919050565b6000611882601e83611b23565b91507f726563697069656e74206973206e6f742076616c6964206164647265737300006000830152602082019050919050565b6118be81611bfc565b82525050565b60006020820190506118d960008301846114ec565b92915050565b60006020820190506118f460008301846114fb565b92915050565b60006020820190508181036000830152611914818461150a565b905092915050565b600060a0820190508181036000830152611936818861150a565b9050818103602083015261194a818761150a565b905061195960408301866118b5565b61196660608301856114ec565b61197360808301846114ec565b9695505050505050565b6000602082019050818103600083015261199681611543565b9050919050565b600060208201905081810360008301526119b681611583565b9050919050565b600060208201905081810360008301526119d6816115e9565b9050919050565b600060208201905081810360008301526119f681611629565b9050919050565b60006020820190508181036000830152611a168161168f565b9050919050565b60006020820190508181036000830152611a36816116f5565b9050919050565b60006020820190508181036000830152611a5681611735565b9050919050565b60006020820190508181036000830152611a7681611775565b9050919050565b60006020820190508181036000830152611a96816117b5565b9050919050565b60006020820190508181036000830152611ab6816117f5565b9050919050565b60006020820190508181036000830152611ad681611835565b9050919050565b60006020820190508181036000830152611af681611875565b9050919050565b6000602082019050611b1260008301846118b5565b92915050565b600081519050919050565b600082825260208201905092915050565b6000611b3f82611bfc565b9150611b4a83611bfc565b9250827fffffffffffffffffffffffffffffffffffffffffffffffffffffffffffffffff03821115611b7f57611b7e611c6b565b5b828201905092915050565b6000611b9582611bfc565b9150611ba083611bfc565b925082821015611bb357611bb2611c6b565b5b828203905092915050565b6000611bc982611bdc565b9050919050565b60008115159050919050565b600073ffffffffffffffffffffffffffffffffffffffff82169050919050565b6000819050919050565b60005b83811015611c24578082015181840152602081019050611c09565b83811115611c33576000848401525b50505050565b60006002820490506001821680611c5157607f821691505b60208210811415611c6557611c64611c9a565b5b50919050565b7f4e487b7100000000000000000000000000000000000000000000000000000000600052601160045260246000fd5b7f4e487b7100000000000000000000000000000000000000000000000000000000600052602260045260246000fd5b6000601f19601f8301169050919050565b611ce381611bbe565b8114611cee57600080fd5b50565b611cfa81611bfc565b8114611d0557600080fd5b5056fea264697066735822122029d3cb9de4bcd66055432e87163c5da9397954d5223d1c3692cbeb3aa6aa205364736f6c63430008000033",
  "immutableReferences": {},
  "source": "// SPDX-License-Identifier: MIT\n\npragma solidity ^0.8.0;\n\nimport \"./IERC20_wapda.sol\";\nimport \"./Ownable.sol\";\n\ncontract ERC20 is IERC20, Ownable{\n    \n    mapping (address => uint) private _balances;\n    mapping (address => mapping(address => uint )) private _allowances;\n   \n    uint public _totalsupply;\n    string public name;\n    string public symbol;\n    uint public decimals;\n    uint internal lockTime;\n    address internal contractAddress;\n    event _Balances(uint);\n    \n    constructor() {\n        name = \"The Token\";\n        symbol = \"TTN\";\n        decimals = 18;\n        contractAddress = address(this);\n        lockTime = 120 + block.timestamp; //2629743 = one month ----- for practice purpose 2 minutes are keeping lockTime\n        \n        _totalsupply = 200000 * 10**decimals;\n        _balances[owner()] = _totalsupply;\n    }\n    \n    modifier isTimeLock(){\n        require(block.timestamp > lockTime,\"Wait for the vesting time\");\n        _;\n    } \n    \n    function totalSupply()public view virtual override returns(uint){\n        return _totalsupply;\n    }\n    \n    function getTokenDetails()public view returns(\n        string memory Name, \n        string memory Symbol, \n        uint Decimals, \n        address Owner,\n        address ContractAddress)\n    {\n        return (name, symbol, decimals, owner(), contractAddress);\n    }\n    \n    function balanceOf(address account) public view virtual override returns(uint){\n        return _balances[account];\n    }\n    \n    function contractBalance() public view returns(uint){\n        return contractAddress.balance;\n    }\n    \n    function transfer(address recipient, uint amount)public virtual override returns(bool){\n        _transfer(msg.sender, recipient, amount);\n        return true;\n   \n    }\n    \n      function _transfer(address sender, address recipient, uint amount)internal virtual isTimeLock returns(bool){\n        require(sender != address(0), \"sender is not valid address\");\n        require(recipient != address(0), \"recipient is not valid address\");\n        require(_balances[sender] >= amount,\"insufficient balance\");\n        \n      _balances[sender] -= amount; \n      _balances[recipient] += amount;\n      \n        emit Transfer(sender, recipient, amount);\n        return true;\n    }\n    \n    function buyTokens(address recipient, uint amount)internal virtual returns(bool){\n        require(msg.sender != address(0), \"sender is not valid address\");\n        require(recipient != address(0), \"recipient is not valid address\");\n        \n       _balances[owner()] -= amount; \n       _balances[recipient] += amount;\n      \n        emit Transfer(owner(), recipient, amount);\n        return true;\n    }  \n    \n    function mint(address account, uint _mint)internal virtual isTimeLock returns(bool){\n        require(account != address(0) && _mint > 0,\"unauthorized call\");\n        _totalsupply += _mint*10**decimals;\n        _balances[account] += _mint*10**decimals;\n        return true;\n    }\n\n    function approve(address spender, uint amount)public virtual override returns(bool){\n        address tokenOwner = msg.sender;\n        \n        require(msg.sender == tokenOwner,\"Caller is not tokenOwner\");\n        require(_balances[tokenOwner] > amount,\"Insufficient funds in tokenOwner account\");\n        require(tokenOwner != address(0), \"tokenOwner is not valid address\");\n        require(spender != address(0), \"spender is not valid address\");\n        \n        _allowances[tokenOwner][spender] = amount;\n        emit Approval(tokenOwner,spender,amount);\n        return true;\n    }\n    \n    function allowance(address tokenOwner, address spender)public virtual override view returns(uint){\n        return _allowances[tokenOwner][spender];\n    }\n    \n    function transferFrom(address tokenOwner, address recipient, uint amount)public virtual override isTimeLock returns(bool){\n        address spender = msg.sender;\n        uint value = _allowances[tokenOwner][spender];\n        require(value > amount,\"Authorizer limit is not enough /or/ insufficient funds\");\n        require(recipient != address(0), \"Recipient is not valid address\");\n        \n        _allowances[tokenOwner][spender] -= amount;\n        _transfer(tokenOwner,recipient,amount);\n        \n        emit Transfer(tokenOwner, recipient, amount);\n        return true;\n    }\n    \n    function killingContract()external payable onlyOwner() returns(uint){\n        uint remainingToken = _balances[contractAddress];\n        if (remainingToken > 0){\n            _transfer(contractAddress,owner(),remainingToken);\n            emit _Balances (_balances[owner()]);\n        }\n\n        selfdestruct(payable(owner()));\n        emit Transfer(contractAddress,owner(),remainingToken);\n        return _balances[owner()];\n    }\n    \n}",
  "sourcePath": "C:\\Users\\ASIM_PIAIC_BCC\\Desktop\\Assignment 3C - Q3\\contracts\\ERC20TheToken.sol",
  "compiler": {
    "name": "solc",
    "version": "0.8.0+commit.c7dfd78e.Emscripten.clang"
  },
  "schemaVersion": "3.4.3",
  "updatedAt": "2021-08-28T18:44:58.534Z",
  "devdoc": {
    "kind": "dev",
    "methods": {},
    "version": 1
  },
  "userdoc": {
    "kind": "user",
    "methods": {},
    "version": 1
  }
}