{
  "contractName": "TheToken",
  "abi": [
    {
      "inputs": [],
      "stateMutability": "nonpayable",
      "type": "constructor"
    },
    {
      "anonymous": false,
      "inputs": [
        {
          "indexed": true,
          "internalType": "address",
          "name": "owner",
          "type": "address"
        },
        {
          "indexed": true,
          "internalType": "address",
          "name": "spender",
          "type": "address"
        },
        {
          "indexed": false,
          "internalType": "uint256",
          "name": "value",
          "type": "uint256"
        }
      ],
      "name": "Approval",
      "type": "event"
    },
    {
      "anonymous": false,
      "inputs": [
        {
          "indexed": true,
          "internalType": "address",
          "name": "previousOwner",
          "type": "address"
        },
        {
          "indexed": true,
          "internalType": "address",
          "name": "newOwner",
          "type": "address"
        }
      ],
      "name": "OwnershipTransferred",
      "type": "event"
    },
    {
      "anonymous": false,
      "inputs": [
        {
          "indexed": true,
          "internalType": "address",
          "name": "from",
          "type": "address"
        },
        {
          "indexed": true,
          "internalType": "address",
          "name": "to",
          "type": "address"
        },
        {
          "indexed": false,
          "internalType": "uint256",
          "name": "value",
          "type": "uint256"
        }
      ],
      "name": "Transfer",
      "type": "event"
    },
    {
      "anonymous": false,
      "inputs": [
        {
          "indexed": false,
          "internalType": "uint256",
          "name": "",
          "type": "uint256"
        }
      ],
      "name": "_Balances",
      "type": "event"
    },
    {
      "stateMutability": "payable",
      "type": "fallback",
      "payable": true
    },
    {
      "inputs": [
        {
          "internalType": "address",
          "name": "tokenOwner",
          "type": "address"
        },
        {
          "internalType": "address",
          "name": "spender",
          "type": "address"
        }
      ],
      "name": "allowance",
      "outputs": [
        {
          "internalType": "uint256",
          "name": "",
          "type": "uint256"
        }
      ],
      "stateMutability": "view",
      "type": "function",
      "constant": true
    },
    {
      "inputs": [
        {
          "internalType": "address",
          "name": "spender",
          "type": "address"
        },
        {
          "internalType": "uint256",
          "name": "amount",
          "type": "uint256"
        }
      ],
      "name": "approve",
      "outputs": [
        {
          "internalType": "bool",
          "name": "",
          "type": "bool"
        }
      ],
      "stateMutability": "nonpayable",
      "type": "function"
    },
    {
      "inputs": [
        {
          "internalType": "address",
          "name": "account",
          "type": "address"
        }
      ],
      "name": "balanceOf",
      "outputs": [
        {
          "internalType": "uint256",
          "name": "",
          "type": "uint256"
        }
      ],
      "stateMutability": "view",
      "type": "function",
      "constant": true
    },
    {
      "inputs": [],
      "name": "contractBalance",
      "outputs": [
        {
          "internalType": "uint256",
          "name": "",
          "type": "uint256"
        }
      ],
      "stateMutability": "view",
      "type": "function",
      "constant": true
    },
    {
      "inputs": [],
      "name": "fundRais",
      "outputs": [
        {
          "internalType": "uint256",
          "name": "",
          "type": "uint256"
        }
      ],
      "stateMutability": "view",
      "type": "function",
      "constant": true
    },
    {
      "inputs": [],
      "name": "getTokenDetails",
      "outputs": [
        {
          "internalType": "string",
          "name": "Name",
          "type": "string"
        },
        {
          "internalType": "string",
          "name": "Symbol",
          "type": "string"
        },
        {
          "internalType": "uint256",
          "name": "Decimals",
          "type": "uint256"
        },
        {
          "internalType": "address",
          "name": "Owner",
          "type": "address"
        },
        {
          "internalType": "address",
          "name": "ContractAddress",
          "type": "address"
        }
      ],
      "stateMutability": "view",
      "type": "function",
      "constant": true
    },
    {
      "inputs": [],
      "name": "killingContract",
      "outputs": [
        {
          "internalType": "uint256",
          "name": "",
          "type": "uint256"
        }
      ],
      "stateMutability": "payable",
      "type": "function",
      "payable": true
    },
    {
      "inputs": [],
      "name": "owner",
      "outputs": [
        {
          "internalType": "address",
          "name": "",
          "type": "address"
        }
      ],
      "stateMutability": "view",
      "type": "function",
      "constant": true
    },
    {
      "inputs": [],
      "name": "rateBuy",
      "outputs": [
        {
          "internalType": "uint256",
          "name": "",
          "type": "uint256"
        }
      ],
      "stateMutability": "view",
      "type": "function",
      "constant": true
    },
    {
      "inputs": [],
      "name": "renounceOwnership",
      "outputs": [],
      "stateMutability": "nonpayable",
      "type": "function"
    },
    {
      "inputs": [],
      "name": "totalSupply",
      "outputs": [
        {
          "internalType": "uint256",
          "name": "",
          "type": "uint256"
        }
      ],
      "stateMutability": "view",
      "type": "function",
      "constant": true
    },
    {
      "inputs": [
        {
          "internalType": "address",
          "name": "recipient",
          "type": "address"
        },
        {
          "internalType": "uint256",
          "name": "amount",
          "type": "uint256"
        }
      ],
      "name": "transfer",
      "outputs": [
        {
          "internalType": "bool",
          "name": "",
          "type": "bool"
        }
      ],
      "stateMutability": "nonpayable",
      "type": "function"
    },
    {
      "inputs": [
        {
          "internalType": "address",
          "name": "tokenOwner",
          "type": "address"
        },
        {
          "internalType": "address",
          "name": "recipient",
          "type": "address"
        },
        {
          "internalType": "uint256",
          "name": "amount",
          "type": "uint256"
        }
      ],
      "name": "transferFrom",
      "outputs": [
        {
          "internalType": "bool",
          "name": "",
          "type": "bool"
        }
      ],
      "stateMutability": "nonpayable",
      "type": "function"
    },
    {
      "inputs": [
        {
          "internalType": "address",
          "name": "newOwner",
          "type": "address"
        }
      ],
      "name": "transferOwnership",
      "outputs": [],
      "stateMutability": "nonpayable",
      "type": "function"
    },
    {
      "stateMutability": "payable",
      "type": "receive",
      "payable": true
    },
    {
      "inputs": [],
      "name": "maxSupplyCap",
      "outputs": [
        {
          "internalType": "uint256",
          "name": "",
          "type": "uint256"
        }
      ],
      "stateMutability": "view",
      "type": "function",
      "constant": true
    },
    {
      "inputs": [
        {
          "internalType": "address",
          "name": "account",
          "type": "address"
        },
        {
          "internalType": "uint256",
          "name": "_mint",
          "type": "uint256"
        }
      ],
      "name": "minting",
      "outputs": [
        {
          "internalType": "bool",
          "name": "",
          "type": "bool"
        }
      ],
      "stateMutability": "nonpayable",
      "type": "function"
    },
    {
      "inputs": [
        {
          "internalType": "address",
          "name": "_priceSetter",
          "type": "address"
        }
      ],
      "name": "setRateSetter",
      "outputs": [],
      "stateMutability": "nonpayable",
      "type": "function"
    },
    {
      "inputs": [
        {
          "internalType": "address",
          "name": "_priceSetter",
          "type": "address"
        }
      ],
      "name": "delRateSetter",
      "outputs": [],
      "stateMutability": "nonpayable",
      "type": "function"
    },
    {
      "inputs": [
        {
          "internalType": "uint256",
          "name": "_newRate",
          "type": "uint256"
        }
      ],
      "name": "setRate",
      "outputs": [
        {
          "internalType": "uint256",
          "name": "newRate",
          "type": "uint256"
        }
      ],
      "stateMutability": "nonpayable",
      "type": "function"
    },
    {
      "inputs": [
        {
          "internalType": "address",
          "name": "account",
          "type": "address"
        }
      ],
      "name": "buyToken",
      "outputs": [
        {
          "internalType": "uint256",
          "name": "FundsRais",
          "type": "uint256"
        }
      ],
      "stateMutability": "payable",
      "type": "function",
      "payable": true
    },
    {
      "inputs": [
        {
          "internalType": "address",
          "name": "_seller",
          "type": "address"
        },
        {
          "internalType": "uint256",
          "name": "_tokenReturn",
          "type": "uint256"
        },
        {
          "internalType": "uint256",
          "name": "_rateSale",
          "type": "uint256"
        }
      ],
      "name": "tokenBuyBack",
      "outputs": [
        {
          "internalType": "bool",
          "name": "",
          "type": "bool"
        }
      ],
      "stateMutability": "payable",
      "type": "function",
      "payable": true
    }
  ],
  "bytecode": "0x60806040523480156200001157600080fd5b506200002333620001ce60201b60201c565b6040518060400160405280600981526020017f54686520546f6b656e00000000000000000000000000000000000000000000008152506004908051906020019062000070929190620002bb565b506040518060400160405280600381526020017f54544e000000000000000000000000000000000000000000000000000000000081525060059080519060200190620000be929190620002bb565b50601260068190555030600860006101000a81548173ffffffffffffffffffffffffffffffffffffffff021916908373ffffffffffffffffffffffffffffffffffffffff1602179055504260786200011791906200036b565b600781905550600654600a6200012e919062000423565b62030d406200013e919062000560565b600381905550600354600160006200015b6200029260201b60201c565b73ffffffffffffffffffffffffffffffffffffffff1673ffffffffffffffffffffffffffffffffffffffff16815260200190815260200160002081905550600654600a620001aa919062000423565b6207a120620001ba919062000560565b600b8190555060646009819055506200066c565b60008060009054906101000a900473ffffffffffffffffffffffffffffffffffffffff169050816000806101000a81548173ffffffffffffffffffffffffffffffffffffffff021916908373ffffffffffffffffffffffffffffffffffffffff1602179055508173ffffffffffffffffffffffffffffffffffffffff168173ffffffffffffffffffffffffffffffffffffffff167f8be0079c531659141344cd1fd0a4f28419497f9722a3daafe3b4186f6b6457e060405160405180910390a35050565b60008060009054906101000a900473ffffffffffffffffffffffffffffffffffffffff16905090565b828054620002c990620005cb565b90600052602060002090601f016020900481019282620002ed576000855562000339565b82601f106200030857805160ff191683800117855562000339565b8280016001018555821562000339579182015b82811115620003385782518255916020019190600101906200031b565b5b5090506200034891906200034c565b5090565b5b80821115620003675760008160009055506001016200034d565b5090565b60006200037882620005c1565b91506200038583620005c1565b9250827fffffffffffffffffffffffffffffffffffffffffffffffffffffffffffffffff03821115620003bd57620003bc62000601565b5b828201905092915050565b6000808291508390505b60018511156200041a57808604811115620003f257620003f162000601565b5b6001851615620004025780820291505b808102905062000412856200065f565b9450620003d2565b94509492505050565b60006200043082620005c1565b91506200043d83620005c1565b92506200046c7fffffffffffffffffffffffffffffffffffffffffffffffffffffffffffffffff848462000474565b905092915050565b60008262000486576001905062000559565b8162000496576000905062000559565b8160018114620004af5760028114620004ba57620004f0565b600191505062000559565b60ff841115620004cf57620004ce62000601565b5b8360020a915084821115620004e957620004e862000601565b5b5062000559565b5060208310610133831016604e8410600b84101617156200052a5782820a90508381111562000524576200052362000601565b5b62000559565b620005398484846001620003c8565b9250905081840481111562000553576200055262000601565b5b81810290505b9392505050565b60006200056d82620005c1565b91506200057a83620005c1565b9250817fffffffffffffffffffffffffffffffffffffffffffffffffffffffffffffffff0483118215151615620005b657620005b562000601565b5b828202905092915050565b6000819050919050565b60006002820490506001821680620005e457607f821691505b60208210811415620005fb57620005fa62000630565b5b50919050565b7f4e487b7100000000000000000000000000000000000000000000000000000000600052601160045260246000fd5b7f4e487b7100000000000000000000000000000000000000000000000000000000600052602260045260246000fd5b60008160011c9050919050565b612eba806200067c6000396000f3fe60806040526004361061012e5760003560e01c806375ae889c116100ab5780639d70902f1161006f5780639d70902f146103fb578063a9059cbb14610426578063dd62ed3e14610463578063ee2f5a45146104a0578063f2fde38b146104cb578063ff332ab7146104f457610135565b806375ae889c1461031c5780637686d63a146103455780637e72fb52146103755780638b7afe2e146103a55780638da5cb5b146103d057610135565b806323b872dd116100f257806323b872dd1461022557806334fcf437146102625780633601f1321461029f57806370a08231146102c8578063715018a61461030557610135565b8063095ea7b31461013757806310782cb71461017457806318160ddd1461019f57806320bbdd1e146101ca578063233ebc8b146101e857610135565b3661013557005b005b34801561014357600080fd5b5061015e60048036038101906101599190611f46565b610523565b60405161016b9190612705565b60405180910390f35b34801561018057600080fd5b506101896107e9565b6040516101969190612a41565b60405180910390f35b3480156101ab57600080fd5b506101b46107ef565b6040516101c19190612a41565b60405180910390f35b6101d26107f9565b6040516101df9190612a41565b60405180910390f35b3480156101f457600080fd5b5061020f600480360381019061020a9190611f46565b6109b2565b60405161021c9190612705565b60405180910390f35b34801561023157600080fd5b5061024c60048036038101906102479190611ef7565b610aa7565b6040516102599190612705565b60405180910390f35b34801561026e57600080fd5b5061028960048036038101906102849190611fd1565b610d36565b6040516102969190612a41565b60405180910390f35b3480156102ab57600080fd5b506102c660048036038101906102c19190611e92565b610e55565b005b3480156102d457600080fd5b506102ef60048036038101906102ea9190611e92565b610f25565b6040516102fc9190612a41565b60405180910390f35b34801561031157600080fd5b5061031a610f6e565b005b34801561032857600080fd5b50610343600480360381019061033e9190611e92565b610fef565b005b61035f600480360381019061035a9190611f82565b6110bf565b60405161036c9190612705565b60405180910390f35b61038f600480360381019061038a9190611e92565b61130c565b60405161039c9190612a41565b60405180910390f35b3480156103b157600080fd5b506103ba6113fc565b6040516103c79190612a41565b60405180910390f35b3480156103dc57600080fd5b506103e561143d565b6040516103f291906126ea565b60405180910390f35b34801561040757600080fd5b50610410611466565b60405161041d9190612a41565b60405180910390f35b34801561043257600080fd5b5061044d60048036038101906104489190611f46565b611470565b60405161045a9190612705565b60405180910390f35b34801561046f57600080fd5b5061048a60048036038101906104859190611ebb565b611488565b6040516104979190612a41565b60405180910390f35b3480156104ac57600080fd5b506104b561150f565b6040516104c29190612a41565b60405180910390f35b3480156104d757600080fd5b506104f260048036038101906104ed9190611e92565b611515565b005b34801561050057600080fd5b50610509611606565b60405161051a959493929190612720565b60405180910390f35b6000803390508073ffffffffffffffffffffffffffffffffffffffff163373ffffffffffffffffffffffffffffffffffffffff1614610597576040517f08c379a000000000000000000000000000000000000000000000000000000000815260040161058e90612981565b60405180910390fd5b82600160008373ffffffffffffffffffffffffffffffffffffffff1673ffffffffffffffffffffffffffffffffffffffff1681526020019081526020016000205411610618576040517f08c379a000000000000000000000000000000000000000000000000000000000815260040161060f90612881565b60405180910390fd5b600073ffffffffffffffffffffffffffffffffffffffff168173ffffffffffffffffffffffffffffffffffffffff161415610688576040517f08c379a000000000000000000000000000000000000000000000000000000000815260040161067f90612921565b60405180910390fd5b600073ffffffffffffffffffffffffffffffffffffffff168473ffffffffffffffffffffffffffffffffffffffff1614156106f8576040517f08c379a00000000000000000000000000000000000000000000000000000000081526004016106ef906129c1565b60405180910390fd5b82600260008373ffffffffffffffffffffffffffffffffffffffff1673ffffffffffffffffffffffffffffffffffffffff16815260200190815260200160002060008673ffffffffffffffffffffffffffffffffffffffff1673ffffffffffffffffffffffffffffffffffffffff168152602001908152602001600020819055508373ffffffffffffffffffffffffffffffffffffffff168173ffffffffffffffffffffffffffffffffffffffff167f8c5be1e5ebec7d5bd14f71427d1e84f3dd0314c0f7b2291e5b200ac8c7c3b925856040516107d69190612a41565b60405180910390a3600191505092915050565b600a5481565b6000600354905090565b60003373ffffffffffffffffffffffffffffffffffffffff1661081a61143d565b73ffffffffffffffffffffffffffffffffffffffff1614610870576040517f08c379a0000000000000000000000000000000000000000000000000000000008152600401610867906128e1565b60405180910390fd5b600060016000600860009054906101000a900473ffffffffffffffffffffffffffffffffffffffff1673ffffffffffffffffffffffffffffffffffffffff1673ffffffffffffffffffffffffffffffffffffffff168152602001908152602001600020549050600081111561099257610913600860009054906101000a900473ffffffffffffffffffffffffffffffffffffffff1661090d61143d565b83611769565b507f0989e97db8b1f78ab91f1a02cb8a47286c74c3a10c9730e2c8bf30ab2f27d57e6001600061094161143d565b73ffffffffffffffffffffffffffffffffffffffff1673ffffffffffffffffffffffffffffffffffffffff168152602001908152602001600020546040516109899190612a41565b60405180910390a15b61099a61143d565b73ffffffffffffffffffffffffffffffffffffffff16ff5b60008073ffffffffffffffffffffffffffffffffffffffff168373ffffffffffffffffffffffffffffffffffffffff161415610a23576040517f08c379a0000000000000000000000000000000000000000000000000000000008152600401610a1a906128c1565b60405180910390fd5b610a2b611466565b670de0b6b3a764000083610a3f9190612c70565b610a476107ef565b610a519190612a78565b1115610a92576040517f08c379a0000000000000000000000000000000000000000000000000000000008152600401610a8990612861565b60405180910390fd5b610a9c8383611a2d565b506001905092915050565b60006007544211610aed576040517f08c379a0000000000000000000000000000000000000000000000000000000008152600401610ae490612781565b60405180910390fd5b60003390506000600260008773ffffffffffffffffffffffffffffffffffffffff1673ffffffffffffffffffffffffffffffffffffffff16815260200190815260200160002060008373ffffffffffffffffffffffffffffffffffffffff1673ffffffffffffffffffffffffffffffffffffffff168152602001908152602001600020549050838111610bb5576040517f08c379a0000000000000000000000000000000000000000000000000000000008152600401610bac90612841565b60405180910390fd5b600073ffffffffffffffffffffffffffffffffffffffff168573ffffffffffffffffffffffffffffffffffffffff161415610c25576040517f08c379a0000000000000000000000000000000000000000000000000000000008152600401610c1c90612801565b60405180910390fd5b83600260008873ffffffffffffffffffffffffffffffffffffffff1673ffffffffffffffffffffffffffffffffffffffff16815260200190815260200160002060008473ffffffffffffffffffffffffffffffffffffffff1673ffffffffffffffffffffffffffffffffffffffff1681526020019081526020016000206000828254610cb19190612cca565b92505081905550610cc3868686611769565b508473ffffffffffffffffffffffffffffffffffffffff168673ffffffffffffffffffffffffffffffffffffffff167fddf252ad1be2c89b69c2b068fc378daa952ba7f163c4a11628f55a4df523b3ef86604051610d219190612a41565b60405180910390a36001925050509392505050565b6000610d4061143d565b73ffffffffffffffffffffffffffffffffffffffff163373ffffffffffffffffffffffffffffffffffffffff161480610dc25750600c60003373ffffffffffffffffffffffffffffffffffffffff1673ffffffffffffffffffffffffffffffffffffffff16815260200190815260200160002060009054906101000a900460ff165b610e01576040517f08c379a0000000000000000000000000000000000000000000000000000000008152600401610df890612961565b60405180910390fd5b60008211610e44576040517f08c379a0000000000000000000000000000000000000000000000000000000008152600401610e3b906127a1565b60405180910390fd5b816009819055506009549050919050565b3373ffffffffffffffffffffffffffffffffffffffff16610e7461143d565b73ffffffffffffffffffffffffffffffffffffffff1614610eca576040517f08c379a0000000000000000000000000000000000000000000000000000000008152600401610ec1906128e1565b60405180910390fd5b6000600c60008373ffffffffffffffffffffffffffffffffffffffff1673ffffffffffffffffffffffffffffffffffffffff16815260200190815260200160002060006101000a81548160ff02191690831515021790555050565b6000600160008373ffffffffffffffffffffffffffffffffffffffff1673ffffffffffffffffffffffffffffffffffffffff168152602001908152602001600020549050919050565b3373ffffffffffffffffffffffffffffffffffffffff16610f8d61143d565b73ffffffffffffffffffffffffffffffffffffffff1614610fe3576040517f08c379a0000000000000000000000000000000000000000000000000000000008152600401610fda906128e1565b60405180910390fd5b610fed6000611b9a565b565b3373ffffffffffffffffffffffffffffffffffffffff1661100e61143d565b73ffffffffffffffffffffffffffffffffffffffff1614611064576040517f08c379a000000000000000000000000000000000000000000000000000000000815260040161105b906128e1565b60405180910390fd5b6001600c60008373ffffffffffffffffffffffffffffffffffffffff1673ffffffffffffffffffffffffffffffffffffffff16815260200190815260200160002060006101000a81548160ff02191690831515021790555050565b600080849050600060065460016110d69190612b52565b84866110e29190612c70565b6110ec9190612ace565b90508173ffffffffffffffffffffffffffffffffffffffff163373ffffffffffffffffffffffffffffffffffffffff161480156111565750600073ffffffffffffffffffffffffffffffffffffffff168273ffffffffffffffffffffffffffffffffffffffff1614155b611195576040517f08c379a000000000000000000000000000000000000000000000000000000000815260040161118c906127c1565b60405180910390fd5b61119e82610f25565b8511156111e0576040517f08c379a00000000000000000000000000000000000000000000000000000000081526004016111d790612821565b60405180910390fd5b600a54811115611225576040517f08c379a000000000000000000000000000000000000000000000000000000000815260040161121c90612a21565b60405180910390fd5b6112378261123161143d565b87611769565b5080600a546112469190612cca565b600a819055508173ffffffffffffffffffffffffffffffffffffffff166108fc829081150290604051600060405180830381858888f19350505050158015611292573d6000803e3d6000fd5b5061129b61143d565b73ffffffffffffffffffffffffffffffffffffffff168273ffffffffffffffffffffffffffffffffffffffff167fddf252ad1be2c89b69c2b068fc378daa952ba7f163c4a11628f55a4df523b3ef876040516112f79190612a41565b60405180910390a36001925050509392505050565b6000806009543461131d9190612c70565b905034600a5461132d9190612a78565b600a81905550600073ffffffffffffffffffffffffffffffffffffffff168373ffffffffffffffffffffffffffffffffffffffff1614156113a3576040517f08c379a000000000000000000000000000000000000000000000000000000000815260040161139a906129e1565b60405180910390fd5b600034116113e6576040517f08c379a00000000000000000000000000000000000000000000000000000000081526004016113dd906128a1565b60405180910390fd5b6113f08382611c5e565b50600a54915050919050565b6000600860009054906101000a900473ffffffffffffffffffffffffffffffffffffffff1673ffffffffffffffffffffffffffffffffffffffff1631905090565b60008060009054906101000a900473ffffffffffffffffffffffffffffffffffffffff16905090565b6000600b54905090565b600061147d338484611769565b506001905092915050565b6000600260008473ffffffffffffffffffffffffffffffffffffffff1673ffffffffffffffffffffffffffffffffffffffff16815260200190815260200160002060008373ffffffffffffffffffffffffffffffffffffffff1673ffffffffffffffffffffffffffffffffffffffff16815260200190815260200160002054905092915050565b60095481565b3373ffffffffffffffffffffffffffffffffffffffff1661153461143d565b73ffffffffffffffffffffffffffffffffffffffff161461158a576040517f08c379a0000000000000000000000000000000000000000000000000000000008152600401611581906128e1565b60405180910390fd5b600073ffffffffffffffffffffffffffffffffffffffff168173ffffffffffffffffffffffffffffffffffffffff1614156115fa576040517f08c379a00000000000000000000000000000000000000000000000000000000081526004016115f1906127e1565b60405180910390fd5b61160381611b9a565b50565b60608060008060006004600560065461161d61143d565b600860009054906101000a900473ffffffffffffffffffffffffffffffffffffffff1684805461164c90612d79565b80601f016020809104026020016040519081016040528092919081815260200182805461167890612d79565b80156116c55780601f1061169a576101008083540402835291602001916116c5565b820191906000526020600020905b8154815290600101906020018083116116a857829003601f168201915b505050505094508380546116d890612d79565b80601f016020809104026020016040519081016040528092919081815260200182805461170490612d79565b80156117515780601f1061172657610100808354040283529160200191611751565b820191906000526020600020905b81548152906001019060200180831161173457829003601f168201915b50505050509350945094509450945094509091929394565b600060075442116117af576040517f08c379a00000000000000000000000000000000000000000000000000000000081526004016117a690612781565b60405180910390fd5b600073ffffffffffffffffffffffffffffffffffffffff168473ffffffffffffffffffffffffffffffffffffffff16141561181f576040517f08c379a0000000000000000000000000000000000000000000000000000000008152600401611816906129a1565b60405180910390fd5b600073ffffffffffffffffffffffffffffffffffffffff168373ffffffffffffffffffffffffffffffffffffffff16141561188f576040517f08c379a000000000000000000000000000000000000000000000000000000000815260040161188690612a01565b60405180910390fd5b81600160008673ffffffffffffffffffffffffffffffffffffffff1673ffffffffffffffffffffffffffffffffffffffff168152602001908152602001600020541015611911576040517f08c379a000000000000000000000000000000000000000000000000000000000815260040161190890612901565b60405180910390fd5b81600160008673ffffffffffffffffffffffffffffffffffffffff1673ffffffffffffffffffffffffffffffffffffffff16815260200190815260200160002060008282546119609190612cca565b9250508190555081600160008573ffffffffffffffffffffffffffffffffffffffff1673ffffffffffffffffffffffffffffffffffffffff16815260200190815260200160002060008282546119b69190612a78565b925050819055508273ffffffffffffffffffffffffffffffffffffffff168473ffffffffffffffffffffffffffffffffffffffff167fddf252ad1be2c89b69c2b068fc378daa952ba7f163c4a11628f55a4df523b3ef84604051611a1a9190612a41565b60405180910390a3600190509392505050565b60006007544211611a73576040517f08c379a0000000000000000000000000000000000000000000000000000000008152600401611a6a90612781565b60405180910390fd5b600073ffffffffffffffffffffffffffffffffffffffff168373ffffffffffffffffffffffffffffffffffffffff1614158015611ab05750600082115b611aef576040517f08c379a0000000000000000000000000000000000000000000000000000000008152600401611ae690612941565b60405180910390fd5b600654600a611afe9190612b52565b82611b099190612c70565b60036000828254611b1a9190612a78565b92505081905550600654600a611b309190612b52565b82611b3b9190612c70565b600160008573ffffffffffffffffffffffffffffffffffffffff1673ffffffffffffffffffffffffffffffffffffffff1681526020019081526020016000206000828254611b899190612a78565b925050819055506001905092915050565b60008060009054906101000a900473ffffffffffffffffffffffffffffffffffffffff169050816000806101000a81548173ffffffffffffffffffffffffffffffffffffffff021916908373ffffffffffffffffffffffffffffffffffffffff1602179055508173ffffffffffffffffffffffffffffffffffffffff168173ffffffffffffffffffffffffffffffffffffffff167f8be0079c531659141344cd1fd0a4f28419497f9722a3daafe3b4186f6b6457e060405160405180910390a35050565b60008073ffffffffffffffffffffffffffffffffffffffff163373ffffffffffffffffffffffffffffffffffffffff161415611ccf576040517f08c379a0000000000000000000000000000000000000000000000000000000008152600401611cc6906129a1565b60405180910390fd5b600073ffffffffffffffffffffffffffffffffffffffff168373ffffffffffffffffffffffffffffffffffffffff161415611d3f576040517f08c379a0000000000000000000000000000000000000000000000000000000008152600401611d3690612a01565b60405180910390fd5b8160016000611d4c61143d565b73ffffffffffffffffffffffffffffffffffffffff1673ffffffffffffffffffffffffffffffffffffffff1681526020019081526020016000206000828254611d959190612cca565b9250508190555081600160008573ffffffffffffffffffffffffffffffffffffffff1673ffffffffffffffffffffffffffffffffffffffff1681526020019081526020016000206000828254611deb9190612a78565b925050819055508273ffffffffffffffffffffffffffffffffffffffff16611e1161143d565b73ffffffffffffffffffffffffffffffffffffffff167fddf252ad1be2c89b69c2b068fc378daa952ba7f163c4a11628f55a4df523b3ef84604051611e569190612a41565b60405180910390a36001905092915050565b600081359050611e7781612e56565b92915050565b600081359050611e8c81612e6d565b92915050565b600060208284031215611ea457600080fd5b6000611eb284828501611e68565b91505092915050565b60008060408385031215611ece57600080fd5b6000611edc85828601611e68565b9250506020611eed85828601611e68565b9150509250929050565b600080600060608486031215611f0c57600080fd5b6000611f1a86828701611e68565b9350506020611f2b86828701611e68565b9250506040611f3c86828701611e7d565b9150509250925092565b60008060408385031215611f5957600080fd5b6000611f6785828601611e68565b9250506020611f7885828601611e7d565b9150509250929050565b600080600060608486031215611f9757600080fd5b6000611fa586828701611e68565b9350506020611fb686828701611e7d565b9250506040611fc786828701611e7d565b9150509250925092565b600060208284031215611fe357600080fd5b6000611ff184828501611e7d565b91505092915050565b61200381612cfe565b82525050565b61201281612d10565b82525050565b600061202382612a5c565b61202d8185612a67565b935061203d818560208601612d46565b61204681612e38565b840191505092915050565b600061205e601983612a67565b91507f5761697420666f72207468652076657374696e672074696d65000000000000006000830152602082019050919050565b600061209e601583612a67565b91507f52617465206d757374206e6f74206265205a65726f00000000000000000000006000830152602082019050919050565b60006120de602383612a67565b91507f53656c6c6572206d7573742062652076616c6964206163636f756e7420686f6c60008301527f64657200000000000000000000000000000000000000000000000000000000006020830152604082019050919050565b6000612144602683612a67565b91507f4f776e61626c653a206e6577206f776e657220697320746865207a65726f206160008301527f64647265737300000000000000000000000000000000000000000000000000006020830152604082019050919050565b60006121aa601e83612a67565b91507f526563697069656e74206973206e6f742076616c6964206164647265737300006000830152602082019050919050565b60006121ea602683612a67565b91507f53656c6c657220746f6b656e2062616c616e6365206973206e6f74207375666660008301527f696369656e7400000000000000000000000000000000000000000000000000006020830152604082019050919050565b6000612250603683612a67565b91507f417574686f72697a6572206c696d6974206973206e6f7420656e6f756768202f60008301527f6f722f20696e73756666696369656e742066756e6473000000000000000000006020830152604082019050919050565b60006122b6601883612a67565b91507f546f6b656e43617065643a2043617020657863656564656400000000000000006000830152602082019050919050565b60006122f6602883612a67565b91507f496e73756666696369656e742066756e647320696e20746f6b656e4f776e657260008301527f206163636f756e740000000000000000000000000000000000000000000000006020830152604082019050919050565b600061235c602783612a67565b91507f6d696e696d756d207075726368617365206d757374206e6f74206265205a657260008301527f6f206574686572000000000000000000000000000000000000000000000000006020830152604082019050919050565b60006123c2602283612a67565b91507f6163636f756e742073686f756c64206e6f74206265207a656f7220616464726560008301527f73730000000000000000000000000000000000000000000000000000000000006020830152604082019050919050565b6000612428602083612a67565b91507f4f776e61626c653a2063616c6c6572206973206e6f7420746865206f776e65726000830152602082019050919050565b6000612468601483612a67565b91507f696e73756666696369656e742062616c616e63650000000000000000000000006000830152602082019050919050565b60006124a8601f83612a67565b91507f746f6b656e4f776e6572206973206e6f742076616c69642061646472657373006000830152602082019050919050565b60006124e8601183612a67565b91507f756e617574686f72697a65642063616c6c0000000000000000000000000000006000830152602082019050919050565b6000612528601883612a67565b91507f63616c6c6572206973206e6f7420617574686f72697a657200000000000000006000830152602082019050919050565b6000612568601883612a67565b91507f43616c6c6572206973206e6f7420746f6b656e4f776e657200000000000000006000830152602082019050919050565b60006125a8601b83612a67565b91507f73656e646572206973206e6f742076616c6964206164647265737300000000006000830152602082019050919050565b60006125e8601c83612a67565b91507f7370656e646572206973206e6f742076616c69642061646472657373000000006000830152602082019050919050565b6000612628601883612a67565b91507f61646472657373206d757374206e6f74206265205a65726f00000000000000006000830152602082019050919050565b6000612668601e83612a67565b91507f726563697069656e74206973206e6f742076616c6964206164647265737300006000830152602082019050919050565b60006126a8601b83612a67565b91507f4e6f206c697175696469747920666f72207468697320746f6b656e00000000006000830152602082019050919050565b6126e481612d3c565b82525050565b60006020820190506126ff6000830184611ffa565b92915050565b600060208201905061271a6000830184612009565b92915050565b600060a082019050818103600083015261273a8188612018565b9050818103602083015261274e8187612018565b905061275d60408301866126db565b61276a6060830185611ffa565b6127776080830184611ffa565b9695505050505050565b6000602082019050818103600083015261279a81612051565b9050919050565b600060208201905081810360008301526127ba81612091565b9050919050565b600060208201905081810360008301526127da816120d1565b9050919050565b600060208201905081810360008301526127fa81612137565b9050919050565b6000602082019050818103600083015261281a8161219d565b9050919050565b6000602082019050818103600083015261283a816121dd565b9050919050565b6000602082019050818103600083015261285a81612243565b9050919050565b6000602082019050818103600083015261287a816122a9565b9050919050565b6000602082019050818103600083015261289a816122e9565b9050919050565b600060208201905081810360008301526128ba8161234f565b9050919050565b600060208201905081810360008301526128da816123b5565b9050919050565b600060208201905081810360008301526128fa8161241b565b9050919050565b6000602082019050818103600083015261291a8161245b565b9050919050565b6000602082019050818103600083015261293a8161249b565b9050919050565b6000602082019050818103600083015261295a816124db565b9050919050565b6000602082019050818103600083015261297a8161251b565b9050919050565b6000602082019050818103600083015261299a8161255b565b9050919050565b600060208201905081810360008301526129ba8161259b565b9050919050565b600060208201905081810360008301526129da816125db565b9050919050565b600060208201905081810360008301526129fa8161261b565b9050919050565b60006020820190508181036000830152612a1a8161265b565b9050919050565b60006020820190508181036000830152612a3a8161269b565b9050919050565b6000602082019050612a5660008301846126db565b92915050565b600081519050919050565b600082825260208201905092915050565b6000612a8382612d3c565b9150612a8e83612d3c565b9250827fffffffffffffffffffffffffffffffffffffffffffffffffffffffffffffffff03821115612ac357612ac2612dab565b5b828201905092915050565b6000612ad982612d3c565b9150612ae483612d3c565b925082612af457612af3612dda565b5b828204905092915050565b6000808291508390505b6001851115612b4957808604811115612b2557612b24612dab565b5b6001851615612b345780820291505b8081029050612b4285612e49565b9450612b09565b94509492505050565b6000612b5d82612d3c565b9150612b6883612d3c565b9250612b957fffffffffffffffffffffffffffffffffffffffffffffffffffffffffffffffff8484612b9d565b905092915050565b600082612bad5760019050612c69565b81612bbb5760009050612c69565b8160018114612bd15760028114612bdb57612c0a565b6001915050612c69565b60ff841115612bed57612bec612dab565b5b8360020a915084821115612c0457612c03612dab565b5b50612c69565b5060208310610133831016604e8410600b8410161715612c3f5782820a905083811115612c3a57612c39612dab565b5b612c69565b612c4c8484846001612aff565b92509050818404811115612c6357612c62612dab565b5b81810290505b9392505050565b6000612c7b82612d3c565b9150612c8683612d3c565b9250817fffffffffffffffffffffffffffffffffffffffffffffffffffffffffffffffff0483118215151615612cbf57612cbe612dab565b5b828202905092915050565b6000612cd582612d3c565b9150612ce083612d3c565b925082821015612cf357612cf2612dab565b5b828203905092915050565b6000612d0982612d1c565b9050919050565b60008115159050919050565b600073ffffffffffffffffffffffffffffffffffffffff82169050919050565b6000819050919050565b60005b83811015612d64578082015181840152602081019050612d49565b83811115612d73576000848401525b50505050565b60006002820490506001821680612d9157607f821691505b60208210811415612da557612da4612e09565b5b50919050565b7f4e487b7100000000000000000000000000000000000000000000000000000000600052601160045260246000fd5b7f4e487b7100000000000000000000000000000000000000000000000000000000600052601260045260246000fd5b7f4e487b7100000000000000000000000000000000000000000000000000000000600052602260045260246000fd5b6000601f19601f8301169050919050565b60008160011c9050919050565b612e5f81612cfe565b8114612e6a57600080fd5b50565b612e7681612d3c565b8114612e8157600080fd5b5056fea2646970667358221220b66ce6f734c4aef487257635e4ad0850f7cb7721fde56d62ca1aed9744e2599f64736f6c63430008000033",
  "immutableReferences": {},
  "source": "// SPDX-License-Identifier: MIT\n// 3A\n// Create a token based on ERC20 which is buyable. Following features should present;\n// 1. Anyone can get the token by paying against ether\n// 2. Add fallback payable method to Issue token based on Ether received. Say 1 Ether = 100 tokens.\n// 3. There should be an additional method to adjust the price that allows the owner to adjust the price.\n\n// 3B  \n// Please complete the ERC20 token with the following extensions;\n// 1. Capped Token: The minting token should not be exceeded from the Capped limit.\n// 2. TimeBound Token: The token will not be transferred until the given time exceed. For example Wages payment will be due after 30 days.\n// 3. should be deployed by using truffle or hardhat on any Ethereum test network\n// Note:  project should be share as a GitHub public repository\n\n// 3C\n// 1. Owner can transfer the ownership of the Token Contract.\n// 2. Owner can approve or delegate anybody to manage the pricing of tokens.\n// 3. Update pricing method to allow owner and approver to change the price of the token\n// 3. Add the ability that Token Holder can return the Token and get back the Ether based on the current price.\n//-------------------------------------------------------------------------------------------------------\n\npragma solidity ^0.8.0;\n\nimport \"./ERC20TheToken.sol\";\n\ncontract TheToken is ERC20{\n    \n    uint public rateBuy;           // rate of token = Ether\n    uint public fundRais;       //sum of ethers collecting during token sale\n    uint private maxSupply;\n    mapping (address => bool) internal priceSetter;\n    \n    \n    constructor(){\n        maxSupply = 500000 *10**decimals;\n        rateBuy = 100;                     // 1 ether = 100 WET \n    }\n    \n    modifier isAuthorizer () {\n       require(msg.sender == owner() || priceSetter[msg.sender],\"caller is not authorizer\"); \n        _;\n    }\n    \n    fallback()external payable{   }\n    \n    receive() external payable{   }\n    \n    function maxSupplyCap()public view returns(uint){\n        return maxSupply;\n    }\n    \n    function minting(address account, uint _mint)public  returns(bool){\n        require(account != address(0),\"account should not be zeor address\");\n        require(totalSupply() + (_mint*10**18) <= maxSupplyCap(),\"TokenCaped: Cap exceeded\");\n        mint(account,_mint);\n        return true;\n    }\n    \n    \n    function setRateSetter(address _priceSetter)public onlyOwner(){\n        priceSetter[_priceSetter] = true;\n    }\n    \n    function delRateSetter(address _priceSetter)public onlyOwner(){\n        priceSetter[_priceSetter] = false;\n    }\n    \n    \n    function setRate(uint _newRate) public isAuthorizer returns(uint newRate){\n        require(_newRate > 0,\"Rate must not be Zero\");\n        rateBuy = _newRate;\n        return rateBuy;\n    }\n    \n    function buyToken(address account) public payable returns(uint FundsRais){\n        uint tokensAllocation = msg.value * rateBuy;\n        fundRais = fundRais + msg.value;\n        \n        require(account != address(0), \"address must not be Zero\");\n        require(msg.value > 0,\"minimum purchase must not be Zero ether\");\n        \n        buyTokens(account,tokensAllocation);\n        return fundRais;\n    }\n    \n    function tokenBuyBack(address _seller, uint _tokenReturn, uint _rateSale)public payable returns(bool){\n        address seller = _seller;\n       uint etherReturn = (_tokenReturn * _rateSale)/(1**decimals);\n        \n        require (msg.sender == seller && seller !=address(0),\"Seller must be valid account holder\");\n        require (_tokenReturn <= balanceOf(seller),\"Seller token balance is not sufficient\");\n        require (etherReturn <= fundRais,\"No liquidity for this token\");\n\n        _transfer(seller,owner(),_tokenReturn);\n        fundRais = fundRais - etherReturn;\n        payable(seller).transfer(etherReturn);\n        \n        emit Transfer(seller, owner(),_tokenReturn);\n        return true;\n    }\n}\n\n\n\n\n\n\n",
  "sourcePath": "C:\\Users\\ASIM_PIAIC_BCC\\Desktop\\Assignment 3C - Q3\\contracts\\TheTokenSale.sol",
  "compiler": {
    "name": "solc",
    "version": "0.8.0+commit.c7dfd78e.Emscripten.clang"
  },
  "schemaVersion": "3.4.3",
  "updatedAt": "2021-08-26T18:34:20.683Z",
  "networkType": "ethereum",
  "devdoc": {
    "kind": "dev",
    "methods": {},
    "version": 1
  },
  "userdoc": {
    "kind": "user",
    "methods": {},
    "version": 1
  }
}