{
  "contractName": "TheToken",
  "abi": [
    {
      "inputs": [],
      "stateMutability": "nonpayable",
      "type": "constructor"
    },
    {
      "anonymous": false,
      "inputs": [
        {
          "indexed": true,
          "internalType": "address",
          "name": "owner",
          "type": "address"
        },
        {
          "indexed": true,
          "internalType": "address",
          "name": "spender",
          "type": "address"
        },
        {
          "indexed": false,
          "internalType": "uint256",
          "name": "value",
          "type": "uint256"
        }
      ],
      "name": "Approval",
      "type": "event"
    },
    {
      "anonymous": false,
      "inputs": [
        {
          "indexed": true,
          "internalType": "address",
          "name": "previousOwner",
          "type": "address"
        },
        {
          "indexed": true,
          "internalType": "address",
          "name": "newOwner",
          "type": "address"
        }
      ],
      "name": "OwnershipTransferred",
      "type": "event"
    },
    {
      "anonymous": false,
      "inputs": [
        {
          "indexed": true,
          "internalType": "address",
          "name": "from",
          "type": "address"
        },
        {
          "indexed": true,
          "internalType": "address",
          "name": "to",
          "type": "address"
        },
        {
          "indexed": false,
          "internalType": "uint256",
          "name": "value",
          "type": "uint256"
        }
      ],
      "name": "Transfer",
      "type": "event"
    },
    {
      "anonymous": false,
      "inputs": [
        {
          "indexed": false,
          "internalType": "uint256",
          "name": "",
          "type": "uint256"
        }
      ],
      "name": "_Balances",
      "type": "event"
    },
    {
      "stateMutability": "payable",
      "type": "fallback",
      "payable": true
    },
    {
      "inputs": [],
      "name": "_totalsupply",
      "outputs": [
        {
          "internalType": "uint256",
          "name": "",
          "type": "uint256"
        }
      ],
      "stateMutability": "view",
      "type": "function",
      "constant": true
    },
    {
      "inputs": [
        {
          "internalType": "address",
          "name": "tokenOwner",
          "type": "address"
        },
        {
          "internalType": "address",
          "name": "spender",
          "type": "address"
        }
      ],
      "name": "allowance",
      "outputs": [
        {
          "internalType": "uint256",
          "name": "",
          "type": "uint256"
        }
      ],
      "stateMutability": "view",
      "type": "function",
      "constant": true
    },
    {
      "inputs": [
        {
          "internalType": "address",
          "name": "spender",
          "type": "address"
        },
        {
          "internalType": "uint256",
          "name": "amount",
          "type": "uint256"
        }
      ],
      "name": "approve",
      "outputs": [
        {
          "internalType": "bool",
          "name": "",
          "type": "bool"
        }
      ],
      "stateMutability": "nonpayable",
      "type": "function"
    },
    {
      "inputs": [
        {
          "internalType": "address",
          "name": "account",
          "type": "address"
        }
      ],
      "name": "balanceOf",
      "outputs": [
        {
          "internalType": "uint256",
          "name": "",
          "type": "uint256"
        }
      ],
      "stateMutability": "view",
      "type": "function",
      "constant": true
    },
    {
      "inputs": [],
      "name": "contractBalance",
      "outputs": [
        {
          "internalType": "uint256",
          "name": "",
          "type": "uint256"
        }
      ],
      "stateMutability": "view",
      "type": "function",
      "constant": true
    },
    {
      "inputs": [],
      "name": "decimals",
      "outputs": [
        {
          "internalType": "uint256",
          "name": "",
          "type": "uint256"
        }
      ],
      "stateMutability": "view",
      "type": "function",
      "constant": true
    },
    {
      "inputs": [],
      "name": "fundRais",
      "outputs": [
        {
          "internalType": "uint256",
          "name": "",
          "type": "uint256"
        }
      ],
      "stateMutability": "view",
      "type": "function",
      "constant": true
    },
    {
      "inputs": [],
      "name": "getTokenDetails",
      "outputs": [
        {
          "internalType": "string",
          "name": "Name",
          "type": "string"
        },
        {
          "internalType": "string",
          "name": "Symbol",
          "type": "string"
        },
        {
          "internalType": "uint256",
          "name": "Decimals",
          "type": "uint256"
        },
        {
          "internalType": "address",
          "name": "Owner",
          "type": "address"
        },
        {
          "internalType": "address",
          "name": "ContractAddress",
          "type": "address"
        }
      ],
      "stateMutability": "view",
      "type": "function",
      "constant": true
    },
    {
      "inputs": [],
      "name": "killingContract",
      "outputs": [
        {
          "internalType": "uint256",
          "name": "",
          "type": "uint256"
        }
      ],
      "stateMutability": "payable",
      "type": "function",
      "payable": true
    },
    {
      "inputs": [],
      "name": "name",
      "outputs": [
        {
          "internalType": "string",
          "name": "",
          "type": "string"
        }
      ],
      "stateMutability": "view",
      "type": "function",
      "constant": true
    },
    {
      "inputs": [],
      "name": "owner",
      "outputs": [
        {
          "internalType": "address",
          "name": "",
          "type": "address"
        }
      ],
      "stateMutability": "view",
      "type": "function",
      "constant": true
    },
    {
      "inputs": [],
      "name": "rateBuy",
      "outputs": [
        {
          "internalType": "uint256",
          "name": "",
          "type": "uint256"
        }
      ],
      "stateMutability": "view",
      "type": "function",
      "constant": true
    },
    {
      "inputs": [],
      "name": "renounceOwnership",
      "outputs": [],
      "stateMutability": "nonpayable",
      "type": "function"
    },
    {
      "inputs": [],
      "name": "symbol",
      "outputs": [
        {
          "internalType": "string",
          "name": "",
          "type": "string"
        }
      ],
      "stateMutability": "view",
      "type": "function",
      "constant": true
    },
    {
      "inputs": [],
      "name": "totalSupply",
      "outputs": [
        {
          "internalType": "uint256",
          "name": "",
          "type": "uint256"
        }
      ],
      "stateMutability": "view",
      "type": "function",
      "constant": true
    },
    {
      "inputs": [
        {
          "internalType": "address",
          "name": "recipient",
          "type": "address"
        },
        {
          "internalType": "uint256",
          "name": "amount",
          "type": "uint256"
        }
      ],
      "name": "transfer",
      "outputs": [
        {
          "internalType": "bool",
          "name": "",
          "type": "bool"
        }
      ],
      "stateMutability": "nonpayable",
      "type": "function"
    },
    {
      "inputs": [
        {
          "internalType": "address",
          "name": "tokenOwner",
          "type": "address"
        },
        {
          "internalType": "address",
          "name": "recipient",
          "type": "address"
        },
        {
          "internalType": "uint256",
          "name": "amount",
          "type": "uint256"
        }
      ],
      "name": "transferFrom",
      "outputs": [
        {
          "internalType": "bool",
          "name": "",
          "type": "bool"
        }
      ],
      "stateMutability": "nonpayable",
      "type": "function"
    },
    {
      "inputs": [
        {
          "internalType": "address",
          "name": "newOwner",
          "type": "address"
        }
      ],
      "name": "transferOwnership",
      "outputs": [],
      "stateMutability": "nonpayable",
      "type": "function"
    },
    {
      "stateMutability": "payable",
      "type": "receive",
      "payable": true
    },
    {
      "inputs": [],
      "name": "maxSupplyCap",
      "outputs": [
        {
          "internalType": "uint256",
          "name": "",
          "type": "uint256"
        }
      ],
      "stateMutability": "view",
      "type": "function",
      "constant": true
    },
    {
      "inputs": [
        {
          "internalType": "address",
          "name": "account",
          "type": "address"
        },
        {
          "internalType": "uint256",
          "name": "_mint",
          "type": "uint256"
        }
      ],
      "name": "minting",
      "outputs": [
        {
          "internalType": "bool",
          "name": "",
          "type": "bool"
        }
      ],
      "stateMutability": "nonpayable",
      "type": "function"
    },
    {
      "inputs": [
        {
          "internalType": "address",
          "name": "_priceSetter",
          "type": "address"
        }
      ],
      "name": "setRateSetter",
      "outputs": [],
      "stateMutability": "nonpayable",
      "type": "function"
    },
    {
      "inputs": [
        {
          "internalType": "address",
          "name": "_priceSetter",
          "type": "address"
        }
      ],
      "name": "delRateSetter",
      "outputs": [],
      "stateMutability": "nonpayable",
      "type": "function"
    },
    {
      "inputs": [
        {
          "internalType": "uint256",
          "name": "_newRate",
          "type": "uint256"
        }
      ],
      "name": "setRate",
      "outputs": [
        {
          "internalType": "uint256",
          "name": "newRate",
          "type": "uint256"
        }
      ],
      "stateMutability": "nonpayable",
      "type": "function"
    },
    {
      "inputs": [
        {
          "internalType": "address",
          "name": "account",
          "type": "address"
        }
      ],
      "name": "buyToken",
      "outputs": [
        {
          "internalType": "uint256",
          "name": "FundsRais",
          "type": "uint256"
        }
      ],
      "stateMutability": "payable",
      "type": "function",
      "payable": true
    },
    {
      "inputs": [
        {
          "internalType": "address",
          "name": "_seller",
          "type": "address"
        },
        {
          "internalType": "uint256",
          "name": "_tokenReturn",
          "type": "uint256"
        },
        {
          "internalType": "uint256",
          "name": "_rateSale",
          "type": "uint256"
        }
      ],
      "name": "tokenBuyBack",
      "outputs": [
        {
          "internalType": "bool",
          "name": "",
          "type": "bool"
        }
      ],
      "stateMutability": "payable",
      "type": "function",
      "payable": true
    }
  ],
  "bytecode": "0x60806040523480156200001157600080fd5b506200002333620001ce60201b60201c565b6040518060400160405280600981526020017f54686520546f6b656e00000000000000000000000000000000000000000000008152506004908051906020019062000070929190620002bb565b506040518060400160405280600381526020017f54544e000000000000000000000000000000000000000000000000000000000081525060059080519060200190620000be929190620002bb565b50601260068190555030600860006101000a81548173ffffffffffffffffffffffffffffffffffffffff021916908373ffffffffffffffffffffffffffffffffffffffff1602179055504260786200011791906200036b565b600781905550600654600a6200012e919062000423565b62030d406200013e919062000560565b600381905550600354600160006200015b6200029260201b60201c565b73ffffffffffffffffffffffffffffffffffffffff1673ffffffffffffffffffffffffffffffffffffffff16815260200190815260200160002081905550600654600a620001aa919062000423565b6207a120620001ba919062000560565b600b8190555060646009819055506200066c565b60008060009054906101000a900473ffffffffffffffffffffffffffffffffffffffff169050816000806101000a81548173ffffffffffffffffffffffffffffffffffffffff021916908373ffffffffffffffffffffffffffffffffffffffff1602179055508173ffffffffffffffffffffffffffffffffffffffff168173ffffffffffffffffffffffffffffffffffffffff167f8be0079c531659141344cd1fd0a4f28419497f9722a3daafe3b4186f6b6457e060405160405180910390a35050565b60008060009054906101000a900473ffffffffffffffffffffffffffffffffffffffff16905090565b828054620002c990620005cb565b90600052602060002090601f016020900481019282620002ed576000855562000339565b82601f106200030857805160ff191683800117855562000339565b8280016001018555821562000339579182015b82811115620003385782518255916020019190600101906200031b565b5b5090506200034891906200034c565b5090565b5b80821115620003675760008160009055506001016200034d565b5090565b60006200037882620005c1565b91506200038583620005c1565b9250827fffffffffffffffffffffffffffffffffffffffffffffffffffffffffffffffff03821115620003bd57620003bc62000601565b5b828201905092915050565b6000808291508390505b60018511156200041a57808604811115620003f257620003f162000601565b5b6001851615620004025780820291505b808102905062000412856200065f565b9450620003d2565b94509492505050565b60006200043082620005c1565b91506200043d83620005c1565b92506200046c7fffffffffffffffffffffffffffffffffffffffffffffffffffffffffffffffff848462000474565b905092915050565b60008262000486576001905062000559565b8162000496576000905062000559565b8160018114620004af5760028114620004ba57620004f0565b600191505062000559565b60ff841115620004cf57620004ce62000601565b5b8360020a915084821115620004e957620004e862000601565b5b5062000559565b5060208310610133831016604e8410600b84101617156200052a5782820a90508381111562000524576200052362000601565b5b62000559565b620005398484846001620003c8565b9250905081840481111562000553576200055262000601565b5b81810290505b9392505050565b60006200056d82620005c1565b91506200057a83620005c1565b9250817fffffffffffffffffffffffffffffffffffffffffffffffffffffffffffffffff0483118215151615620005b657620005b562000601565b5b828202905092915050565b6000819050919050565b60006002820490506001821680620005e457607f821691505b60208210811415620005fb57620005fa62000630565b5b50919050565b7f4e487b7100000000000000000000000000000000000000000000000000000000600052601160045260246000fd5b7f4e487b7100000000000000000000000000000000000000000000000000000000600052602260045260246000fd5b60008160011c9050919050565b6130ec806200067c6000396000f3fe60806040526004361061016a5760003560e01c806375ae889c116100d15780639d70902f1161008a578063dd62ed3e11610064578063dd62ed3e1461054b578063ee2f5a4514610588578063f2fde38b146105b3578063ff332ab7146105dc57610171565b80639d70902f146104b8578063a393dc44146104e3578063a9059cbb1461050e57610171565b806375ae889c146103ae5780637686d63a146103d75780637e72fb52146104075780638b7afe2e146104375780638da5cb5b1461046257806395d89b411461048d57610171565b806323b872dd1161012357806323b872dd1461028c578063313ce567146102c957806334fcf437146102f45780633601f1321461033157806370a082311461035a578063715018a61461039757610171565b806306fdde0314610173578063095ea7b31461019e57806310782cb7146101db57806318160ddd1461020657806320bbdd1e14610231578063233ebc8b1461024f57610171565b3661017157005b005b34801561017f57600080fd5b5061018861060b565b6040516101959190612930565b60405180910390f35b3480156101aa57600080fd5b506101c560048036038101906101c09190612156565b610699565b6040516101d29190612915565b60405180910390f35b3480156101e757600080fd5b506101f061095f565b6040516101fd9190612c73565b60405180910390f35b34801561021257600080fd5b5061021b610965565b6040516102289190612c73565b60405180910390f35b61023961096f565b6040516102469190612c73565b60405180910390f35b34801561025b57600080fd5b5061027660048036038101906102719190612156565b610b28565b6040516102839190612915565b60405180910390f35b34801561029857600080fd5b506102b360048036038101906102ae9190612107565b610c1d565b6040516102c09190612915565b60405180910390f35b3480156102d557600080fd5b506102de610eac565b6040516102eb9190612c73565b60405180910390f35b34801561030057600080fd5b5061031b600480360381019061031691906121e1565b610eb2565b6040516103289190612c73565b60405180910390f35b34801561033d57600080fd5b50610358600480360381019061035391906120a2565b610fd1565b005b34801561036657600080fd5b50610381600480360381019061037c91906120a2565b6110a1565b60405161038e9190612c73565b60405180910390f35b3480156103a357600080fd5b506103ac6110ea565b005b3480156103ba57600080fd5b506103d560048036038101906103d091906120a2565b61116b565b005b6103f160048036038101906103ec9190612192565b61123b565b6040516103fe9190612915565b60405180910390f35b610421600480360381019061041c91906120a2565b611488565b60405161042e9190612c73565b60405180910390f35b34801561044357600080fd5b5061044c611578565b6040516104599190612c73565b60405180910390f35b34801561046e57600080fd5b506104776115b9565b60405161048491906128fa565b60405180910390f35b34801561049957600080fd5b506104a26115e2565b6040516104af9190612930565b60405180910390f35b3480156104c457600080fd5b506104cd611670565b6040516104da9190612c73565b60405180910390f35b3480156104ef57600080fd5b506104f861167a565b6040516105059190612c73565b60405180910390f35b34801561051a57600080fd5b5061053560048036038101906105309190612156565b611680565b6040516105429190612915565b60405180910390f35b34801561055757600080fd5b50610572600480360381019061056d91906120cb565b611698565b60405161057f9190612c73565b60405180910390f35b34801561059457600080fd5b5061059d61171f565b6040516105aa9190612c73565b60405180910390f35b3480156105bf57600080fd5b506105da60048036038101906105d591906120a2565b611725565b005b3480156105e857600080fd5b506105f1611816565b604051610602959493929190612952565b60405180910390f35b6004805461061890612fab565b80601f016020809104026020016040519081016040528092919081815260200182805461064490612fab565b80156106915780601f1061066657610100808354040283529160200191610691565b820191906000526020600020905b81548152906001019060200180831161067457829003601f168201915b505050505081565b6000803390508073ffffffffffffffffffffffffffffffffffffffff163373ffffffffffffffffffffffffffffffffffffffff161461070d576040517f08c379a000000000000000000000000000000000000000000000000000000000815260040161070490612bb3565b60405180910390fd5b82600160008373ffffffffffffffffffffffffffffffffffffffff1673ffffffffffffffffffffffffffffffffffffffff168152602001908152602001600020541161078e576040517f08c379a000000000000000000000000000000000000000000000000000000000815260040161078590612ab3565b60405180910390fd5b600073ffffffffffffffffffffffffffffffffffffffff168173ffffffffffffffffffffffffffffffffffffffff1614156107fe576040517f08c379a00000000000000000000000000000000000000000000000000000000081526004016107f590612b53565b60405180910390fd5b600073ffffffffffffffffffffffffffffffffffffffff168473ffffffffffffffffffffffffffffffffffffffff16141561086e576040517f08c379a000000000000000000000000000000000000000000000000000000000815260040161086590612bf3565b60405180910390fd5b82600260008373ffffffffffffffffffffffffffffffffffffffff1673ffffffffffffffffffffffffffffffffffffffff16815260200190815260200160002060008673ffffffffffffffffffffffffffffffffffffffff1673ffffffffffffffffffffffffffffffffffffffff168152602001908152602001600020819055508373ffffffffffffffffffffffffffffffffffffffff168173ffffffffffffffffffffffffffffffffffffffff167f8c5be1e5ebec7d5bd14f71427d1e84f3dd0314c0f7b2291e5b200ac8c7c3b9258560405161094c9190612c73565b60405180910390a3600191505092915050565b600a5481565b6000600354905090565b60003373ffffffffffffffffffffffffffffffffffffffff166109906115b9565b73ffffffffffffffffffffffffffffffffffffffff16146109e6576040517f08c379a00000000000000000000000000000000000000000000000000000000081526004016109dd90612b13565b60405180910390fd5b600060016000600860009054906101000a900473ffffffffffffffffffffffffffffffffffffffff1673ffffffffffffffffffffffffffffffffffffffff1673ffffffffffffffffffffffffffffffffffffffff1681526020019081526020016000205490506000811115610b0857610a89600860009054906101000a900473ffffffffffffffffffffffffffffffffffffffff16610a836115b9565b83611979565b507f0989e97db8b1f78ab91f1a02cb8a47286c74c3a10c9730e2c8bf30ab2f27d57e60016000610ab76115b9565b73ffffffffffffffffffffffffffffffffffffffff1673ffffffffffffffffffffffffffffffffffffffff16815260200190815260200160002054604051610aff9190612c73565b60405180910390a15b610b106115b9565b73ffffffffffffffffffffffffffffffffffffffff16ff5b60008073ffffffffffffffffffffffffffffffffffffffff168373ffffffffffffffffffffffffffffffffffffffff161415610b99576040517f08c379a0000000000000000000000000000000000000000000000000000000008152600401610b9090612af3565b60405180910390fd5b610ba1611670565b670de0b6b3a764000083610bb59190612ea2565b610bbd610965565b610bc79190612caa565b1115610c08576040517f08c379a0000000000000000000000000000000000000000000000000000000008152600401610bff90612a93565b60405180910390fd5b610c128383611c3d565b506001905092915050565b60006007544211610c63576040517f08c379a0000000000000000000000000000000000000000000000000000000008152600401610c5a906129b3565b60405180910390fd5b60003390506000600260008773ffffffffffffffffffffffffffffffffffffffff1673ffffffffffffffffffffffffffffffffffffffff16815260200190815260200160002060008373ffffffffffffffffffffffffffffffffffffffff1673ffffffffffffffffffffffffffffffffffffffff168152602001908152602001600020549050838111610d2b576040517f08c379a0000000000000000000000000000000000000000000000000000000008152600401610d2290612a73565b60405180910390fd5b600073ffffffffffffffffffffffffffffffffffffffff168573ffffffffffffffffffffffffffffffffffffffff161415610d9b576040517f08c379a0000000000000000000000000000000000000000000000000000000008152600401610d9290612a33565b60405180910390fd5b83600260008873ffffffffffffffffffffffffffffffffffffffff1673ffffffffffffffffffffffffffffffffffffffff16815260200190815260200160002060008473ffffffffffffffffffffffffffffffffffffffff1673ffffffffffffffffffffffffffffffffffffffff1681526020019081526020016000206000828254610e279190612efc565b92505081905550610e39868686611979565b508473ffffffffffffffffffffffffffffffffffffffff168673ffffffffffffffffffffffffffffffffffffffff167fddf252ad1be2c89b69c2b068fc378daa952ba7f163c4a11628f55a4df523b3ef86604051610e979190612c73565b60405180910390a36001925050509392505050565b60065481565b6000610ebc6115b9565b73ffffffffffffffffffffffffffffffffffffffff163373ffffffffffffffffffffffffffffffffffffffff161480610f3e5750600c60003373ffffffffffffffffffffffffffffffffffffffff1673ffffffffffffffffffffffffffffffffffffffff16815260200190815260200160002060009054906101000a900460ff165b610f7d576040517f08c379a0000000000000000000000000000000000000000000000000000000008152600401610f7490612b93565b60405180910390fd5b60008211610fc0576040517f08c379a0000000000000000000000000000000000000000000000000000000008152600401610fb7906129d3565b60405180910390fd5b816009819055506009549050919050565b3373ffffffffffffffffffffffffffffffffffffffff16610ff06115b9565b73ffffffffffffffffffffffffffffffffffffffff1614611046576040517f08c379a000000000000000000000000000000000000000000000000000000000815260040161103d90612b13565b60405180910390fd5b6000600c60008373ffffffffffffffffffffffffffffffffffffffff1673ffffffffffffffffffffffffffffffffffffffff16815260200190815260200160002060006101000a81548160ff02191690831515021790555050565b6000600160008373ffffffffffffffffffffffffffffffffffffffff1673ffffffffffffffffffffffffffffffffffffffff168152602001908152602001600020549050919050565b3373ffffffffffffffffffffffffffffffffffffffff166111096115b9565b73ffffffffffffffffffffffffffffffffffffffff161461115f576040517f08c379a000000000000000000000000000000000000000000000000000000000815260040161115690612b13565b60405180910390fd5b6111696000611daa565b565b3373ffffffffffffffffffffffffffffffffffffffff1661118a6115b9565b73ffffffffffffffffffffffffffffffffffffffff16146111e0576040517f08c379a00000000000000000000000000000000000000000000000000000000081526004016111d790612b13565b60405180910390fd5b6001600c60008373ffffffffffffffffffffffffffffffffffffffff1673ffffffffffffffffffffffffffffffffffffffff16815260200190815260200160002060006101000a81548160ff02191690831515021790555050565b600080849050600060065460016112529190612d84565b848661125e9190612d00565b6112689190612d00565b90508173ffffffffffffffffffffffffffffffffffffffff163373ffffffffffffffffffffffffffffffffffffffff161480156112d25750600073ffffffffffffffffffffffffffffffffffffffff168273ffffffffffffffffffffffffffffffffffffffff1614155b611311576040517f08c379a0000000000000000000000000000000000000000000000000000000008152600401611308906129f3565b60405180910390fd5b61131a826110a1565b85111561135c576040517f08c379a000000000000000000000000000000000000000000000000000000000815260040161135390612a53565b60405180910390fd5b600a548111156113a1576040517f08c379a000000000000000000000000000000000000000000000000000000000815260040161139890612c53565b60405180910390fd5b6113b3826113ad6115b9565b87611979565b5080600a546113c29190612efc565b600a819055508173ffffffffffffffffffffffffffffffffffffffff166108fc829081150290604051600060405180830381858888f1935050505015801561140e573d6000803e3d6000fd5b506114176115b9565b73ffffffffffffffffffffffffffffffffffffffff168273ffffffffffffffffffffffffffffffffffffffff167fddf252ad1be2c89b69c2b068fc378daa952ba7f163c4a11628f55a4df523b3ef876040516114739190612c73565b60405180910390a36001925050509392505050565b600080600954346114999190612ea2565b905034600a546114a99190612caa565b600a81905550600073ffffffffffffffffffffffffffffffffffffffff168373ffffffffffffffffffffffffffffffffffffffff16141561151f576040517f08c379a000000000000000000000000000000000000000000000000000000000815260040161151690612c13565b60405180910390fd5b60003411611562576040517f08c379a000000000000000000000000000000000000000000000000000000000815260040161155990612ad3565b60405180910390fd5b61156c8382611e6e565b50600a54915050919050565b6000600860009054906101000a900473ffffffffffffffffffffffffffffffffffffffff1673ffffffffffffffffffffffffffffffffffffffff1631905090565b60008060009054906101000a900473ffffffffffffffffffffffffffffffffffffffff16905090565b600580546115ef90612fab565b80601f016020809104026020016040519081016040528092919081815260200182805461161b90612fab565b80156116685780601f1061163d57610100808354040283529160200191611668565b820191906000526020600020905b81548152906001019060200180831161164b57829003601f168201915b505050505081565b6000600b54905090565b60035481565b600061168d338484611979565b506001905092915050565b6000600260008473ffffffffffffffffffffffffffffffffffffffff1673ffffffffffffffffffffffffffffffffffffffff16815260200190815260200160002060008373ffffffffffffffffffffffffffffffffffffffff1673ffffffffffffffffffffffffffffffffffffffff16815260200190815260200160002054905092915050565b60095481565b3373ffffffffffffffffffffffffffffffffffffffff166117446115b9565b73ffffffffffffffffffffffffffffffffffffffff161461179a576040517f08c379a000000000000000000000000000000000000000000000000000000000815260040161179190612b13565b60405180910390fd5b600073ffffffffffffffffffffffffffffffffffffffff168173ffffffffffffffffffffffffffffffffffffffff16141561180a576040517f08c379a000000000000000000000000000000000000000000000000000000000815260040161180190612a13565b60405180910390fd5b61181381611daa565b50565b60608060008060006004600560065461182d6115b9565b600860009054906101000a900473ffffffffffffffffffffffffffffffffffffffff1684805461185c90612fab565b80601f016020809104026020016040519081016040528092919081815260200182805461188890612fab565b80156118d55780601f106118aa576101008083540402835291602001916118d5565b820191906000526020600020905b8154815290600101906020018083116118b857829003601f168201915b505050505094508380546118e890612fab565b80601f016020809104026020016040519081016040528092919081815260200182805461191490612fab565b80156119615780601f1061193657610100808354040283529160200191611961565b820191906000526020600020905b81548152906001019060200180831161194457829003601f168201915b50505050509350945094509450945094509091929394565b600060075442116119bf576040517f08c379a00000000000000000000000000000000000000000000000000000000081526004016119b6906129b3565b60405180910390fd5b600073ffffffffffffffffffffffffffffffffffffffff168473ffffffffffffffffffffffffffffffffffffffff161415611a2f576040517f08c379a0000000000000000000000000000000000000000000000000000000008152600401611a2690612bd3565b60405180910390fd5b600073ffffffffffffffffffffffffffffffffffffffff168373ffffffffffffffffffffffffffffffffffffffff161415611a9f576040517f08c379a0000000000000000000000000000000000000000000000000000000008152600401611a9690612c33565b60405180910390fd5b81600160008673ffffffffffffffffffffffffffffffffffffffff1673ffffffffffffffffffffffffffffffffffffffff168152602001908152602001600020541015611b21576040517f08c379a0000000000000000000000000000000000000000000000000000000008152600401611b1890612b33565b60405180910390fd5b81600160008673ffffffffffffffffffffffffffffffffffffffff1673ffffffffffffffffffffffffffffffffffffffff1681526020019081526020016000206000828254611b709190612efc565b9250508190555081600160008573ffffffffffffffffffffffffffffffffffffffff1673ffffffffffffffffffffffffffffffffffffffff1681526020019081526020016000206000828254611bc69190612caa565b925050819055508273ffffffffffffffffffffffffffffffffffffffff168473ffffffffffffffffffffffffffffffffffffffff167fddf252ad1be2c89b69c2b068fc378daa952ba7f163c4a11628f55a4df523b3ef84604051611c2a9190612c73565b60405180910390a3600190509392505050565b60006007544211611c83576040517f08c379a0000000000000000000000000000000000000000000000000000000008152600401611c7a906129b3565b60405180910390fd5b600073ffffffffffffffffffffffffffffffffffffffff168373ffffffffffffffffffffffffffffffffffffffff1614158015611cc05750600082115b611cff576040517f08c379a0000000000000000000000000000000000000000000000000000000008152600401611cf690612b73565b60405180910390fd5b600654600a611d0e9190612d84565b82611d199190612ea2565b60036000828254611d2a9190612caa565b92505081905550600654600a611d409190612d84565b82611d4b9190612ea2565b600160008573ffffffffffffffffffffffffffffffffffffffff1673ffffffffffffffffffffffffffffffffffffffff1681526020019081526020016000206000828254611d999190612caa565b925050819055506001905092915050565b60008060009054906101000a900473ffffffffffffffffffffffffffffffffffffffff169050816000806101000a81548173ffffffffffffffffffffffffffffffffffffffff021916908373ffffffffffffffffffffffffffffffffffffffff1602179055508173ffffffffffffffffffffffffffffffffffffffff168173ffffffffffffffffffffffffffffffffffffffff167f8be0079c531659141344cd1fd0a4f28419497f9722a3daafe3b4186f6b6457e060405160405180910390a35050565b60008073ffffffffffffffffffffffffffffffffffffffff163373ffffffffffffffffffffffffffffffffffffffff161415611edf576040517f08c379a0000000000000000000000000000000000000000000000000000000008152600401611ed690612bd3565b60405180910390fd5b600073ffffffffffffffffffffffffffffffffffffffff168373ffffffffffffffffffffffffffffffffffffffff161415611f4f576040517f08c379a0000000000000000000000000000000000000000000000000000000008152600401611f4690612c33565b60405180910390fd5b8160016000611f5c6115b9565b73ffffffffffffffffffffffffffffffffffffffff1673ffffffffffffffffffffffffffffffffffffffff1681526020019081526020016000206000828254611fa59190612efc565b9250508190555081600160008573ffffffffffffffffffffffffffffffffffffffff1673ffffffffffffffffffffffffffffffffffffffff1681526020019081526020016000206000828254611ffb9190612caa565b925050819055508273ffffffffffffffffffffffffffffffffffffffff166120216115b9565b73ffffffffffffffffffffffffffffffffffffffff167fddf252ad1be2c89b69c2b068fc378daa952ba7f163c4a11628f55a4df523b3ef846040516120669190612c73565b60405180910390a36001905092915050565b60008135905061208781613088565b92915050565b60008135905061209c8161309f565b92915050565b6000602082840312156120b457600080fd5b60006120c284828501612078565b91505092915050565b600080604083850312156120de57600080fd5b60006120ec85828601612078565b92505060206120fd85828601612078565b9150509250929050565b60008060006060848603121561211c57600080fd5b600061212a86828701612078565b935050602061213b86828701612078565b925050604061214c8682870161208d565b9150509250925092565b6000806040838503121561216957600080fd5b600061217785828601612078565b92505060206121888582860161208d565b9150509250929050565b6000806000606084860312156121a757600080fd5b60006121b586828701612078565b93505060206121c68682870161208d565b92505060406121d78682870161208d565b9150509250925092565b6000602082840312156121f357600080fd5b60006122018482850161208d565b91505092915050565b61221381612f30565b82525050565b61222281612f42565b82525050565b600061223382612c8e565b61223d8185612c99565b935061224d818560208601612f78565b6122568161306a565b840191505092915050565b600061226e601983612c99565b91507f5761697420666f72207468652076657374696e672074696d65000000000000006000830152602082019050919050565b60006122ae601583612c99565b91507f52617465206d757374206e6f74206265205a65726f00000000000000000000006000830152602082019050919050565b60006122ee602383612c99565b91507f53656c6c6572206d7573742062652076616c6964206163636f756e7420686f6c60008301527f64657200000000000000000000000000000000000000000000000000000000006020830152604082019050919050565b6000612354602683612c99565b91507f4f776e61626c653a206e6577206f776e657220697320746865207a65726f206160008301527f64647265737300000000000000000000000000000000000000000000000000006020830152604082019050919050565b60006123ba601e83612c99565b91507f526563697069656e74206973206e6f742076616c6964206164647265737300006000830152602082019050919050565b60006123fa602683612c99565b91507f53656c6c657220746f6b656e2062616c616e6365206973206e6f74207375666660008301527f696369656e7400000000000000000000000000000000000000000000000000006020830152604082019050919050565b6000612460603683612c99565b91507f417574686f72697a6572206c696d6974206973206e6f7420656e6f756768202f60008301527f6f722f20696e73756666696369656e742066756e6473000000000000000000006020830152604082019050919050565b60006124c6601883612c99565b91507f546f6b656e43617065643a2043617020657863656564656400000000000000006000830152602082019050919050565b6000612506602883612c99565b91507f496e73756666696369656e742066756e647320696e20746f6b656e4f776e657260008301527f206163636f756e740000000000000000000000000000000000000000000000006020830152604082019050919050565b600061256c602783612c99565b91507f6d696e696d756d207075726368617365206d757374206e6f74206265205a657260008301527f6f206574686572000000000000000000000000000000000000000000000000006020830152604082019050919050565b60006125d2602283612c99565b91507f6163636f756e742073686f756c64206e6f74206265207a656f7220616464726560008301527f73730000000000000000000000000000000000000000000000000000000000006020830152604082019050919050565b6000612638602083612c99565b91507f4f776e61626c653a2063616c6c6572206973206e6f7420746865206f776e65726000830152602082019050919050565b6000612678601483612c99565b91507f696e73756666696369656e742062616c616e63650000000000000000000000006000830152602082019050919050565b60006126b8601f83612c99565b91507f746f6b656e4f776e6572206973206e6f742076616c69642061646472657373006000830152602082019050919050565b60006126f8601183612c99565b91507f756e617574686f72697a65642063616c6c0000000000000000000000000000006000830152602082019050919050565b6000612738601883612c99565b91507f63616c6c6572206973206e6f7420617574686f72697a657200000000000000006000830152602082019050919050565b6000612778601883612c99565b91507f43616c6c6572206973206e6f7420746f6b656e4f776e657200000000000000006000830152602082019050919050565b60006127b8601b83612c99565b91507f73656e646572206973206e6f742076616c6964206164647265737300000000006000830152602082019050919050565b60006127f8601c83612c99565b91507f7370656e646572206973206e6f742076616c69642061646472657373000000006000830152602082019050919050565b6000612838601883612c99565b91507f61646472657373206d757374206e6f74206265205a65726f00000000000000006000830152602082019050919050565b6000612878601e83612c99565b91507f726563697069656e74206973206e6f742076616c6964206164647265737300006000830152602082019050919050565b60006128b8601b83612c99565b91507f4e6f206c697175696469747920666f72207468697320746f6b656e00000000006000830152602082019050919050565b6128f481612f6e565b82525050565b600060208201905061290f600083018461220a565b92915050565b600060208201905061292a6000830184612219565b92915050565b6000602082019050818103600083015261294a8184612228565b905092915050565b600060a082019050818103600083015261296c8188612228565b905081810360208301526129808187612228565b905061298f60408301866128eb565b61299c606083018561220a565b6129a9608083018461220a565b9695505050505050565b600060208201905081810360008301526129cc81612261565b9050919050565b600060208201905081810360008301526129ec816122a1565b9050919050565b60006020820190508181036000830152612a0c816122e1565b9050919050565b60006020820190508181036000830152612a2c81612347565b9050919050565b60006020820190508181036000830152612a4c816123ad565b9050919050565b60006020820190508181036000830152612a6c816123ed565b9050919050565b60006020820190508181036000830152612a8c81612453565b9050919050565b60006020820190508181036000830152612aac816124b9565b9050919050565b60006020820190508181036000830152612acc816124f9565b9050919050565b60006020820190508181036000830152612aec8161255f565b9050919050565b60006020820190508181036000830152612b0c816125c5565b9050919050565b60006020820190508181036000830152612b2c8161262b565b9050919050565b60006020820190508181036000830152612b4c8161266b565b9050919050565b60006020820190508181036000830152612b6c816126ab565b9050919050565b60006020820190508181036000830152612b8c816126eb565b9050919050565b60006020820190508181036000830152612bac8161272b565b9050919050565b60006020820190508181036000830152612bcc8161276b565b9050919050565b60006020820190508181036000830152612bec816127ab565b9050919050565b60006020820190508181036000830152612c0c816127eb565b9050919050565b60006020820190508181036000830152612c2c8161282b565b9050919050565b60006020820190508181036000830152612c4c8161286b565b9050919050565b60006020820190508181036000830152612c6c816128ab565b9050919050565b6000602082019050612c8860008301846128eb565b92915050565b600081519050919050565b600082825260208201905092915050565b6000612cb582612f6e565b9150612cc083612f6e565b9250827fffffffffffffffffffffffffffffffffffffffffffffffffffffffffffffffff03821115612cf557612cf4612fdd565b5b828201905092915050565b6000612d0b82612f6e565b9150612d1683612f6e565b925082612d2657612d2561300c565b5b828204905092915050565b6000808291508390505b6001851115612d7b57808604811115612d5757612d56612fdd565b5b6001851615612d665780820291505b8081029050612d748561307b565b9450612d3b565b94509492505050565b6000612d8f82612f6e565b9150612d9a83612f6e565b9250612dc77fffffffffffffffffffffffffffffffffffffffffffffffffffffffffffffffff8484612dcf565b905092915050565b600082612ddf5760019050612e9b565b81612ded5760009050612e9b565b8160018114612e035760028114612e0d57612e3c565b6001915050612e9b565b60ff841115612e1f57612e1e612fdd565b5b8360020a915084821115612e3657612e35612fdd565b5b50612e9b565b5060208310610133831016604e8410600b8410161715612e715782820a905083811115612e6c57612e6b612fdd565b5b612e9b565b612e7e8484846001612d31565b92509050818404811115612e9557612e94612fdd565b5b81810290505b9392505050565b6000612ead82612f6e565b9150612eb883612f6e565b9250817fffffffffffffffffffffffffffffffffffffffffffffffffffffffffffffffff0483118215151615612ef157612ef0612fdd565b5b828202905092915050565b6000612f0782612f6e565b9150612f1283612f6e565b925082821015612f2557612f24612fdd565b5b828203905092915050565b6000612f3b82612f4e565b9050919050565b60008115159050919050565b600073ffffffffffffffffffffffffffffffffffffffff82169050919050565b6000819050919050565b60005b83811015612f96578082015181840152602081019050612f7b565b83811115612fa5576000848401525b50505050565b60006002820490506001821680612fc357607f821691505b60208210811415612fd757612fd661303b565b5b50919050565b7f4e487b7100000000000000000000000000000000000000000000000000000000600052601160045260246000fd5b7f4e487b7100000000000000000000000000000000000000000000000000000000600052601260045260246000fd5b7f4e487b7100000000000000000000000000000000000000000000000000000000600052602260045260246000fd5b6000601f19601f8301169050919050565b60008160011c9050919050565b61309181612f30565b811461309c57600080fd5b50565b6130a881612f6e565b81146130b357600080fd5b5056fea2646970667358221220daa19c4123db5df25c797a44a6210bc8c330165cfd5771ec18dcea55cdcde2d564736f6c63430008000033",
  "immutableReferences": {},
  "source": "// SPDX-License-Identifier: MIT\n// 3A\n// Create a token based on ERC20 which is buyable. Following features should present;\n// 1. Anyone can get the token by paying against ether\n// 2. Add fallback payable method to Issue token based on Ether received. Say 1 Ether = 100 tokens.\n// 3. There should be an additional method to adjust the price that allows the owner to adjust the price.\n\n// 3B  \n// Please complete the ERC20 token with the following extensions;\n// 1. Capped Token: The minting token should not be exceeded from the Capped limit.\n// 2. TimeBound Token: The token will not be transferred until the given time exceed. For example Wages payment will be due after 30 days.\n// 3. should be deployed by using truffle or hardhat on any Ethereum test network\n// Note:  project should be share as a GitHub public repository\n\n// 3C\n// 1. Owner can transfer the ownership of the Token Contract.\n// 2. Owner can approve or delegate anybody to manage the pricing of tokens.\n// 3. Update pricing method to allow owner and approver to change the price of the token\n// 3. Add the ability that Token Holder can return the Token and get back the Ether based on the current price.\n//-------------------------------------------------------------------------------------------------------\n\npragma solidity ^0.8.0;\n\nimport \"./ERC20TheToken.sol\";\n\ncontract TheToken is ERC20{\n    \n    uint public rateBuy;           // rate of token = Ether\n    uint public fundRais;       //sum of ethers collecting during token sale\n    uint private maxSupply;\n    mapping (address => bool) internal priceSetter;\n    \n    \n    constructor(){\n        maxSupply = 500000 *10**decimals;\n        rateBuy = 100;                     // 1 ether = 100 WET \n    }\n    \n    modifier isAuthorizer () {\n       require(msg.sender == owner() || priceSetter[msg.sender],\"caller is not authorizer\"); \n        _;\n    }\n    \n    fallback()external payable{   }\n    \n    receive() external payable{   }\n    \n    function maxSupplyCap()public view returns(uint){\n        return maxSupply;\n    }\n    \n    function minting(address account, uint _mint)public  returns(bool){\n        require(account != address(0),\"account should not be zeor address\");\n        require(totalSupply() + (_mint*10**18) <= maxSupplyCap(),\"TokenCaped: Cap exceeded\");\n        mint(account,_mint);\n        return true;\n    }\n    \n    \n    function setRateSetter(address _priceSetter)public onlyOwner(){\n        priceSetter[_priceSetter] = true;\n    }\n    \n    function delRateSetter(address _priceSetter)public onlyOwner(){\n        priceSetter[_priceSetter] = false;\n    }\n    \n    \n    function setRate(uint _newRate) public isAuthorizer returns(uint newRate){\n        require(_newRate > 0,\"Rate must not be Zero\");\n        rateBuy = _newRate;\n        return rateBuy;\n    }\n    \n    function buyToken(address account) public payable returns(uint FundsRais){\n        uint tokensAllocation = msg.value * rateBuy;\n        fundRais = fundRais + msg.value;\n        \n        require(account != address(0), \"address must not be Zero\");\n        require(msg.value > 0,\"minimum purchase must not be Zero ether\");\n        \n        buyTokens(account,tokensAllocation);\n        return fundRais;\n    }\n    \n    function tokenBuyBack(address _seller, uint _tokenReturn, uint _rateSale)public payable returns(bool){\n        address seller = _seller;\n       uint etherReturn = (_tokenReturn / _rateSale)/(1**decimals);\n        \n        require (msg.sender == seller && seller !=address(0),\"Seller must be valid account holder\");\n        require (_tokenReturn <= balanceOf(seller),\"Seller token balance is not sufficient\");\n        require (etherReturn <= fundRais,\"No liquidity for this token\");\n\n        _transfer(seller,owner(),_tokenReturn);\n        fundRais = fundRais - etherReturn;\n        payable(seller).transfer(etherReturn);\n        \n        emit Transfer(seller, owner(),_tokenReturn);\n        return true;\n    }\n}\n\n\n\n\n\n\n",
  "sourcePath": "C:\\Users\\ASIM_PIAIC_BCC\\Desktop\\Assignment 3C - Q3\\contracts\\TheTokenSale.sol",
  "compiler": {
    "name": "solc",
    "version": "0.8.0+commit.c7dfd78e.Emscripten.clang"
  },
  "schemaVersion": "3.4.3",
  "updatedAt": "2021-08-28T18:45:56.324Z",
  "networkType": "ethereum",
  "devdoc": {
    "kind": "dev",
    "methods": {},
    "version": 1
  },
  "userdoc": {
    "kind": "user",
    "methods": {},
    "version": 1
  }
}